{
	"data": {
		"bytecode": {
			"linkReferences": {},
			"object": "608060405234801561001057600080fd5b5061206e806100206000396000f3fe608060405234801561001057600080fd5b506004361061004c5760003560e01c8063398d92bb146100515780634f6300a214610081578063c84aae17146100b1578063fa09e630146100e1575b600080fd5b61006b600480360381019061006691906113b0565b610111565b604051610078919061187a565b60405180910390f35b61009b600480360381019061009691906113b0565b610516565b6040516100a8919061187a565b60405180910390f35b6100cb60048036038101906100c691906112e0565b6108dc565b6040516100d89190611858565b60405180910390f35b6100fb60048036038101906100f691906112e0565b610ba3565b6040516101089190611836565b60405180910390f35b6000808311610155576040517f08c379a000000000000000000000000000000000000000000000000000000000815260040161014c90611915565b60405180910390fd5b60405160200161016490611798565b604051602081830303815290604052805190602001208260405160200161018b919061177d565b6040516020818303038152906040528051906020012014156101e2576040517f08c379a00000000000000000000000000000000000000000000000000000000081526004016101d990611975565b60405180910390fd5b6000600260008473ffffffffffffffffffffffffffffffffffffffff1673ffffffffffffffffffffffffffffffffffffffff1681526020019081526020016000205490506000600360003373ffffffffffffffffffffffffffffffffffffffff1673ffffffffffffffffffffffffffffffffffffffff16815260200190815260200160002060008381526020019081526020016000206040518060800160405290816000820160009054906101000a900473ffffffffffffffffffffffffffffffffffffffff1673ffffffffffffffffffffffffffffffffffffffff1673ffffffffffffffffffffffffffffffffffffffff1681526020016001820180546102e990611bda565b80601f016020809104026020016040519081016040528092919081815260200182805461031590611bda565b80156103625780601f1061033757610100808354040283529160200191610362565b820191906000526020600020905b81548152906001019060200180831161034557829003601f168201915b50505050508152602001600282015481526020016003820160009054906101000a900460ff161515151581525050905080606001516103d6576040517f08c379a00000000000000000000000000000000000000000000000000000000081526004016103cd906118d5565b60405180910390fd5b600081604001511161041d576040517f08c379a000000000000000000000000000000000000000000000000000000000815260040161041490611935565b60405180910390fd5b60008490508073ffffffffffffffffffffffffffffffffffffffff166323b872dd3033896040518463ffffffff1660e01b815260040161045f939291906117d6565b602060405180830381600087803b15801561047957600080fd5b505af115801561048d573d6000803e3d6000fd5b505050506040513d601f19601f820116820180604052508101906104b1919061130d565b6104f0576040517f08c379a00000000000000000000000000000000000000000000000000000000081526004016104e7906118b5565b60405180910390fd5b85826040018181516105029190611b2b565b915081815250506001935050505092915050565b600080831161055a576040517f08c379a000000000000000000000000000000000000000000000000000000000815260040161055190611995565b60405180910390fd5b60405160200161056990611798565b6040516020818303038152906040528051906020012082604051602001610590919061177d565b6040516020818303038152906040528051906020012014156105e7576040517f08c379a00000000000000000000000000000000000000000000000000000000081526004016105de90611975565b60405180910390fd5b6105f082610ebb565b6000600260008473ffffffffffffffffffffffffffffffffffffffff1673ffffffffffffffffffffffffffffffffffffffff1681526020019081526020016000205490506000839050848173ffffffffffffffffffffffffffffffffffffffff1663dd62ed3e33306040518363ffffffff1660e01b81526004016106759291906117ad565b60206040518083038186803b15801561068d57600080fd5b505afa1580156106a1573d6000803e3d6000fd5b505050506040513d601f19601f820116820180604052508101906106c59190611383565b1015610798578073ffffffffffffffffffffffffffffffffffffffff1663095ea7b330876040518363ffffffff1660e01b815260040161070692919061180d565b602060405180830381600087803b15801561072057600080fd5b505af1158015610734573d6000803e3d6000fd5b505050506040513d601f19601f82011682018060405250810190610758919061130d565b610797576040517f08c379a000000000000000000000000000000000000000000000000000000000815260040161078e906119b5565b60405180910390fd5b5b8073ffffffffffffffffffffffffffffffffffffffff166323b872dd3330886040518463ffffffff1660e01b81526004016107d5939291906117d6565b602060405180830381600087803b1580156107ef57600080fd5b505af1158015610803573d6000803e3d6000fd5b505050506040513d601f19601f82011682018060405250810190610827919061130d565b610866576040517f08c379a000000000000000000000000000000000000000000000000000000000815260040161085d906118f5565b60405180910390fd5b84600360003373ffffffffffffffffffffffffffffffffffffffff1673ffffffffffffffffffffffffffffffffffffffff168152602001908152602001600020600084815260200190815260200160002060020160008282546108c99190611ad5565b9250508190555060019250505092915050565b60608173ffffffffffffffffffffffffffffffffffffffff163373ffffffffffffffffffffffffffffffffffffffff161461094c576040517f08c379a000000000000000000000000000000000000000000000000000000000815260040161094390611895565b60405180910390fd5b6000600160008473ffffffffffffffffffffffffffffffffffffffff1673ffffffffffffffffffffffffffffffffffffffff16815260200190815260200160002054905060008167ffffffffffffffff8111156109ac576109ab611d37565b5b6040519080825280602002602001820160405280156109e557816020015b6109d2611139565b8152602001906001900390816109ca5790505b50905060005b6001836109f89190611b2b565b811015610b9857600360008673ffffffffffffffffffffffffffffffffffffffff1673ffffffffffffffffffffffffffffffffffffffff16815260200190815260200160002060008281526020019081526020016000206040518060800160405290816000820160009054906101000a900473ffffffffffffffffffffffffffffffffffffffff1673ffffffffffffffffffffffffffffffffffffffff1673ffffffffffffffffffffffffffffffffffffffff168152602001600182018054610ac090611bda565b80601f0160208091040260200160405190810160405280929190818152602001828054610aec90611bda565b8015610b395780601f10610b0e57610100808354040283529160200191610b39565b820191906000526020600020905b815481529060010190602001808311610b1c57829003601f168201915b50505050508152602001600282015481526020016003820160009054906101000a900460ff161515151581525050828281518110610b7a57610b79611d08565b5b60200260200101819052508080610b9090611c3d565b9150506109eb565b508092505050919050565b60608173ffffffffffffffffffffffffffffffffffffffff163373ffffffffffffffffffffffffffffffffffffffff1614610c13576040517f08c379a0000000000000000000000000000000000000000000000000000000008152600401610c0a90611955565b60405180910390fd5b6000600160008473ffffffffffffffffffffffffffffffffffffffff1673ffffffffffffffffffffffffffffffffffffffff168152602001908152602001600020549050606060005b600183610c699190611b2b565b811015610eb0576000600360008773ffffffffffffffffffffffffffffffffffffffff1673ffffffffffffffffffffffffffffffffffffffff16815260200190815260200160002060008381526020019081526020016000206040518060800160405290816000820160009054906101000a900473ffffffffffffffffffffffffffffffffffffffff1673ffffffffffffffffffffffffffffffffffffffff1673ffffffffffffffffffffffffffffffffffffffff168152602001600182018054610d3390611bda565b80601f0160208091040260200160405190810160405280929190818152602001828054610d5f90611bda565b8015610dac5780601f10610d8157610100808354040283529160200191610dac565b820191906000526020600020905b815481529060010190602001808311610d8f57829003601f168201915b50505050508152602001600282015481526020016003820160009054906101000a900460ff16151515158152505090506000816000015190508073ffffffffffffffffffffffffffffffffffffffff1663a9059cbb8884604001516040518363ffffffff1660e01b8152600401610e2492919061180d565b602060405180830381600087803b158015610e3e57600080fd5b505af1158015610e52573d6000803e3d6000fd5b505050506040513d601f19601f82011682018060405250810190610e76919061130d565b848481518110610e8957610e88611d08565b5b60200260200101901515908115158152505050508080610ea890611c3d565b915050610c5c565b508092505050919050565b60008173ffffffffffffffffffffffffffffffffffffffff166395d89b416040518163ffffffff1660e01b815260040160006040518083038186803b158015610f0357600080fd5b505afa158015610f17573d6000803e3d6000fd5b505050506040513d6000823e3d601f19601f82011682018060405250810190610f40919061133a565b90506000610f4e6000611115565b9050610f5a6000611123565b60405180608001604052808473ffffffffffffffffffffffffffffffffffffffff1681526020018381526020016000815260200160011515815250600360003373ffffffffffffffffffffffffffffffffffffffff1673ffffffffffffffffffffffffffffffffffffffff168152602001908152602001600020600083815260200190815260200160002060008201518160000160006101000a81548173ffffffffffffffffffffffffffffffffffffffff021916908373ffffffffffffffffffffffffffffffffffffffff1602179055506020820151816001019080519060200190611048929190611179565b506040820151816002015560608201518160030160006101000a81548160ff02191690831515021790555090505080600260008573ffffffffffffffffffffffffffffffffffffffff1673ffffffffffffffffffffffffffffffffffffffff1681526020019081526020016000208190555060018060003373ffffffffffffffffffffffffffffffffffffffff1673ffffffffffffffffffffffffffffffffffffffff16815260200190815260200160002060008282546111099190611ad5565b92505081905550505050565b600081600001549050919050565b6001816000016000828254019250508190555050565b6040518060800160405280600073ffffffffffffffffffffffffffffffffffffffff16815260200160608152602001600081526020016000151581525090565b82805461118590611bda565b90600052602060002090601f0160209004810192826111a757600085556111ee565b82601f106111c057805160ff19168380011785556111ee565b828001600101855582156111ee579182015b828111156111ed5782518255916020019190600101906111d2565b5b5090506111fb91906111ff565b5090565b5b80821115611218576000816000905550600101611200565b5090565b600061122f61122a846119fa565b6119d5565b90508281526020810184848401111561124b5761124a611d6b565b5b611256848285611ba7565b509392505050565b60008135905061126d81611ff3565b92915050565b6000815190506112828161200a565b92915050565b600082601f83011261129d5761129c611d66565b5b81516112ad84826020860161121c565b91505092915050565b6000813590506112c581612021565b92915050565b6000815190506112da81612021565b92915050565b6000602082840312156112f6576112f5611d75565b5b60006113048482850161125e565b91505092915050565b60006020828403121561132357611322611d75565b5b600061133184828501611273565b91505092915050565b6000602082840312156113505761134f611d75565b5b600082015167ffffffffffffffff81111561136e5761136d611d70565b5b61137a84828501611288565b91505092915050565b60006020828403121561139957611398611d75565b5b60006113a7848285016112cb565b91505092915050565b600080604083850312156113c7576113c6611d75565b5b60006113d5858286016112b6565b92505060206113e68582860161125e565b9150509250929050565b60006113fc8383611524565b60208301905092915050565b600061141483836116fc565b905092915050565b61142581611b5f565b82525050565b61143481611b5f565b82525050565b61144b61144682611b5f565b611c86565b82525050565b600061145c82611a4b565b6114668185611a86565b935061147183611a2b565b8060005b838110156114a257815161148988826113f0565b975061149483611a6c565b925050600181019050611475565b5085935050505092915050565b60006114ba82611a56565b6114c48185611a97565b9350836020820285016114d685611a3b565b8060005b8581101561151257848403895281516114f38582611408565b94506114fe83611a79565b925060208a019950506001810190506114da565b50829750879550505050505092915050565b61152d81611b71565b82525050565b61153c81611b71565b82525050565b600061154d82611a61565b6115578185611aa8565b9350611567818560208601611ba7565b61157081611d7a565b840191505092915050565b6000611588602e83611ab9565b915061159382611d98565b604082019050919050565b60006115ab602283611ab9565b91506115b682611de7565b604082019050919050565b60006115ce601783611ab9565b91506115d982611e36565b602082019050919050565b60006115f1602183611ab9565b91506115fc82611e5f565b604082019050919050565b6000611614601c83611ab9565b915061161f82611eae565b602082019050919050565b6000611637601683611ab9565b915061164282611ed7565b602082019050919050565b600061165a602983611ab9565b915061166582611f00565b604082019050919050565b600061167d601783611ab9565b915061168882611f4f565b602082019050919050565b60006116a0600083611aca565b91506116ab82611f78565b600082019050919050565b60006116c3601b83611ab9565b91506116ce82611f7b565b602082019050919050565b60006116e6602c83611ab9565b91506116f182611fa4565b604082019050919050565b6000608083016000830151611714600086018261141c565b506020830151848203602086015261172c8282611542565b9150506040830151611741604086018261175f565b5060608301516117546060860182611524565b508091505092915050565b61176881611b9d565b82525050565b61177781611b9d565b82525050565b6000611789828461143a565b60148201915081905092915050565b60006117a382611693565b9150819050919050565b60006040820190506117c2600083018561142b565b6117cf602083018461142b565b9392505050565b60006060820190506117eb600083018661142b565b6117f8602083018561142b565b611805604083018461176e565b949350505050565b6000604082019050611822600083018561142b565b61182f602083018461176e565b9392505050565b600060208201905081810360008301526118508184611451565b905092915050565b6000602082019050818103600083015261187281846114af565b905092915050565b600060208201905061188f6000830184611533565b92915050565b600060208201905081810360008301526118ae8161157b565b9050919050565b600060208201905081810360008301526118ce8161159e565b9050919050565b600060208201905081810360008301526118ee816115c1565b9050919050565b6000602082019050818103600083015261190e816115e4565b9050919050565b6000602082019050818103600083015261192e81611607565b9050919050565b6000602082019050818103600083015261194e8161162a565b9050919050565b6000602082019050818103600083015261196e8161164d565b9050919050565b6000602082019050818103600083015261198e81611670565b9050919050565b600060208201905081810360008301526119ae816116b6565b9050919050565b600060208201905081810360008301526119ce816116d9565b9050919050565b60006119df6119f0565b90506119eb8282611c0c565b919050565b6000604051905090565b600067ffffffffffffffff821115611a1557611a14611d37565b5b611a1e82611d7a565b9050602081019050919050565b6000819050602082019050919050565b6000819050602082019050919050565b600081519050919050565b600081519050919050565b600081519050919050565b6000602082019050919050565b6000602082019050919050565b600082825260208201905092915050565b600082825260208201905092915050565b600082825260208201905092915050565b600082825260208201905092915050565b600081905092915050565b6000611ae082611b9d565b9150611aeb83611b9d565b9250827fffffffffffffffffffffffffffffffffffffffffffffffffffffffffffffffff03821115611b2057611b1f611caa565b5b828201905092915050565b6000611b3682611b9d565b9150611b4183611b9d565b925082821015611b5457611b53611caa565b5b828203905092915050565b6000611b6a82611b7d565b9050919050565b60008115159050919050565b600073ffffffffffffffffffffffffffffffffffffffff82169050919050565b6000819050919050565b60005b83811015611bc5578082015181840152602081019050611baa565b83811115611bd4576000848401525b50505050565b60006002820490506001821680611bf257607f821691505b60208210811415611c0657611c05611cd9565b5b50919050565b611c1582611d7a565b810181811067ffffffffffffffff82111715611c3457611c33611d37565b5b80604052505050565b6000611c4882611b9d565b91507fffffffffffffffffffffffffffffffffffffffffffffffffffffffffffffffff821415611c7b57611c7a611caa565b5b600182019050919050565b6000611c9182611c98565b9050919050565b6000611ca382611d8b565b9050919050565b7f4e487b7100000000000000000000000000000000000000000000000000000000600052601160045260246000fd5b7f4e487b7100000000000000000000000000000000000000000000000000000000600052602260045260246000fd5b7f4e487b7100000000000000000000000000000000000000000000000000000000600052603260045260246000fd5b7f4e487b7100000000000000000000000000000000000000000000000000000000600052604160045260246000fd5b600080fd5b600080fd5b600080fd5b600080fd5b6000601f19601f8301169050919050565b60008160601b9050919050565b7f596f752043616e204f6e6c79205669657720596f7572204f776e20506f72746660008201527f6f6c696f2042616c616e63657321000000000000000000000000000000000000602082015250565b7f5769746864726177204661696c65642120506c6561736520547279204167616960008201527f6e21000000000000000000000000000000000000000000000000000000000000602082015250565b7f546f6b656e204e6f7420696e20506f7274666f6c696f21000000000000000000600082015250565b7f4465706f736974204661696c65642120506c656173652054727920416761696e60008201527f2100000000000000000000000000000000000000000000000000000000000000602082015250565b7f576974686472617720416d6f756e742043616e6e6f7420426520302100000000600082015250565b7f4e6f20546f6b656e7320746f2057697468647261772100000000000000000000600082015250565b7f596f752043616e204f6e6c7920576974686472617720596f7572204f776e205060008201527f6f7274666f6c696f210000000000000000000000000000000000000000000000602082015250565b7f546f6b656e204164647265737320526571756972656421000000000000000000600082015250565b50565b7f4465706f73697420416d6f756e742043616e6e6f742042652030210000000000600082015250565b7f416c6c6f77616e636520417070726f76616c204661696c65642120506c65617360008201527f652054727920416761696e210000000000000000000000000000000000000000602082015250565b611ffc81611b5f565b811461200757600080fd5b50565b61201381611b71565b811461201e57600080fd5b50565b61202a81611b9d565b811461203557600080fd5b5056fea26469706673582212201e9d5713274171ece6360d826a4988d5fba7a90c3a3df2f67fe46270fd1a7d8e64736f6c63430008070033",
			"opcodes": "PUSH1 0x80 PUSH1 0x40 MSTORE CALLVALUE DUP1 ISZERO PUSH2 0x10 JUMPI PUSH1 0x0 DUP1 REVERT JUMPDEST POP PUSH2 0x206E DUP1 PUSH2 0x20 PUSH1 0x0 CODECOPY PUSH1 0x0 RETURN INVALID PUSH1 0x80 PUSH1 0x40 MSTORE CALLVALUE DUP1 ISZERO PUSH2 0x10 JUMPI PUSH1 0x0 DUP1 REVERT JUMPDEST POP PUSH1 0x4 CALLDATASIZE LT PUSH2 0x4C JUMPI PUSH1 0x0 CALLDATALOAD PUSH1 0xE0 SHR DUP1 PUSH4 0x398D92BB EQ PUSH2 0x51 JUMPI DUP1 PUSH4 0x4F6300A2 EQ PUSH2 0x81 JUMPI DUP1 PUSH4 0xC84AAE17 EQ PUSH2 0xB1 JUMPI DUP1 PUSH4 0xFA09E630 EQ PUSH2 0xE1 JUMPI JUMPDEST PUSH1 0x0 DUP1 REVERT JUMPDEST PUSH2 0x6B PUSH1 0x4 DUP1 CALLDATASIZE SUB DUP2 ADD SWAP1 PUSH2 0x66 SWAP2 SWAP1 PUSH2 0x13B0 JUMP JUMPDEST PUSH2 0x111 JUMP JUMPDEST PUSH1 0x40 MLOAD PUSH2 0x78 SWAP2 SWAP1 PUSH2 0x187A JUMP JUMPDEST PUSH1 0x40 MLOAD DUP1 SWAP2 SUB SWAP1 RETURN JUMPDEST PUSH2 0x9B PUSH1 0x4 DUP1 CALLDATASIZE SUB DUP2 ADD SWAP1 PUSH2 0x96 SWAP2 SWAP1 PUSH2 0x13B0 JUMP JUMPDEST PUSH2 0x516 JUMP JUMPDEST PUSH1 0x40 MLOAD PUSH2 0xA8 SWAP2 SWAP1 PUSH2 0x187A JUMP JUMPDEST PUSH1 0x40 MLOAD DUP1 SWAP2 SUB SWAP1 RETURN JUMPDEST PUSH2 0xCB PUSH1 0x4 DUP1 CALLDATASIZE SUB DUP2 ADD SWAP1 PUSH2 0xC6 SWAP2 SWAP1 PUSH2 0x12E0 JUMP JUMPDEST PUSH2 0x8DC JUMP JUMPDEST PUSH1 0x40 MLOAD PUSH2 0xD8 SWAP2 SWAP1 PUSH2 0x1858 JUMP JUMPDEST PUSH1 0x40 MLOAD DUP1 SWAP2 SUB SWAP1 RETURN JUMPDEST PUSH2 0xFB PUSH1 0x4 DUP1 CALLDATASIZE SUB DUP2 ADD SWAP1 PUSH2 0xF6 SWAP2 SWAP1 PUSH2 0x12E0 JUMP JUMPDEST PUSH2 0xBA3 JUMP JUMPDEST PUSH1 0x40 MLOAD PUSH2 0x108 SWAP2 SWAP1 PUSH2 0x1836 JUMP JUMPDEST PUSH1 0x40 MLOAD DUP1 SWAP2 SUB SWAP1 RETURN JUMPDEST PUSH1 0x0 DUP1 DUP4 GT PUSH2 0x155 JUMPI PUSH1 0x40 MLOAD PUSH32 0x8C379A000000000000000000000000000000000000000000000000000000000 DUP2 MSTORE PUSH1 0x4 ADD PUSH2 0x14C SWAP1 PUSH2 0x1915 JUMP JUMPDEST PUSH1 0x40 MLOAD DUP1 SWAP2 SUB SWAP1 REVERT JUMPDEST PUSH1 0x40 MLOAD PUSH1 0x20 ADD PUSH2 0x164 SWAP1 PUSH2 0x1798 JUMP JUMPDEST PUSH1 0x40 MLOAD PUSH1 0x20 DUP2 DUP4 SUB SUB DUP2 MSTORE SWAP1 PUSH1 0x40 MSTORE DUP1 MLOAD SWAP1 PUSH1 0x20 ADD KECCAK256 DUP3 PUSH1 0x40 MLOAD PUSH1 0x20 ADD PUSH2 0x18B SWAP2 SWAP1 PUSH2 0x177D JUMP JUMPDEST PUSH1 0x40 MLOAD PUSH1 0x20 DUP2 DUP4 SUB SUB DUP2 MSTORE SWAP1 PUSH1 0x40 MSTORE DUP1 MLOAD SWAP1 PUSH1 0x20 ADD KECCAK256 EQ ISZERO PUSH2 0x1E2 JUMPI PUSH1 0x40 MLOAD PUSH32 0x8C379A000000000000000000000000000000000000000000000000000000000 DUP2 MSTORE PUSH1 0x4 ADD PUSH2 0x1D9 SWAP1 PUSH2 0x1975 JUMP JUMPDEST PUSH1 0x40 MLOAD DUP1 SWAP2 SUB SWAP1 REVERT JUMPDEST PUSH1 0x0 PUSH1 0x2 PUSH1 0x0 DUP5 PUSH20 0xFFFFFFFFFFFFFFFFFFFFFFFFFFFFFFFFFFFFFFFF AND PUSH20 0xFFFFFFFFFFFFFFFFFFFFFFFFFFFFFFFFFFFFFFFF AND DUP2 MSTORE PUSH1 0x20 ADD SWAP1 DUP2 MSTORE PUSH1 0x20 ADD PUSH1 0x0 KECCAK256 SLOAD SWAP1 POP PUSH1 0x0 PUSH1 0x3 PUSH1 0x0 CALLER PUSH20 0xFFFFFFFFFFFFFFFFFFFFFFFFFFFFFFFFFFFFFFFF AND PUSH20 0xFFFFFFFFFFFFFFFFFFFFFFFFFFFFFFFFFFFFFFFF AND DUP2 MSTORE PUSH1 0x20 ADD SWAP1 DUP2 MSTORE PUSH1 0x20 ADD PUSH1 0x0 KECCAK256 PUSH1 0x0 DUP4 DUP2 MSTORE PUSH1 0x20 ADD SWAP1 DUP2 MSTORE PUSH1 0x20 ADD PUSH1 0x0 KECCAK256 PUSH1 0x40 MLOAD DUP1 PUSH1 0x80 ADD PUSH1 0x40 MSTORE SWAP1 DUP2 PUSH1 0x0 DUP3 ADD PUSH1 0x0 SWAP1 SLOAD SWAP1 PUSH2 0x100 EXP SWAP1 DIV PUSH20 0xFFFFFFFFFFFFFFFFFFFFFFFFFFFFFFFFFFFFFFFF AND PUSH20 0xFFFFFFFFFFFFFFFFFFFFFFFFFFFFFFFFFFFFFFFF AND PUSH20 0xFFFFFFFFFFFFFFFFFFFFFFFFFFFFFFFFFFFFFFFF AND DUP2 MSTORE PUSH1 0x20 ADD PUSH1 0x1 DUP3 ADD DUP1 SLOAD PUSH2 0x2E9 SWAP1 PUSH2 0x1BDA JUMP JUMPDEST DUP1 PUSH1 0x1F ADD PUSH1 0x20 DUP1 SWAP2 DIV MUL PUSH1 0x20 ADD PUSH1 0x40 MLOAD SWAP1 DUP2 ADD PUSH1 0x40 MSTORE DUP1 SWAP3 SWAP2 SWAP1 DUP2 DUP2 MSTORE PUSH1 0x20 ADD DUP3 DUP1 SLOAD PUSH2 0x315 SWAP1 PUSH2 0x1BDA JUMP JUMPDEST DUP1 ISZERO PUSH2 0x362 JUMPI DUP1 PUSH1 0x1F LT PUSH2 0x337 JUMPI PUSH2 0x100 DUP1 DUP4 SLOAD DIV MUL DUP4 MSTORE SWAP2 PUSH1 0x20 ADD SWAP2 PUSH2 0x362 JUMP JUMPDEST DUP3 ADD SWAP2 SWAP1 PUSH1 0x0 MSTORE PUSH1 0x20 PUSH1 0x0 KECCAK256 SWAP1 JUMPDEST DUP2 SLOAD DUP2 MSTORE SWAP1 PUSH1 0x1 ADD SWAP1 PUSH1 0x20 ADD DUP1 DUP4 GT PUSH2 0x345 JUMPI DUP3 SWAP1 SUB PUSH1 0x1F AND DUP3 ADD SWAP2 JUMPDEST POP POP POP POP POP DUP2 MSTORE PUSH1 0x20 ADD PUSH1 0x2 DUP3 ADD SLOAD DUP2 MSTORE PUSH1 0x20 ADD PUSH1 0x3 DUP3 ADD PUSH1 0x0 SWAP1 SLOAD SWAP1 PUSH2 0x100 EXP SWAP1 DIV PUSH1 0xFF AND ISZERO ISZERO ISZERO ISZERO DUP2 MSTORE POP POP SWAP1 POP DUP1 PUSH1 0x60 ADD MLOAD PUSH2 0x3D6 JUMPI PUSH1 0x40 MLOAD PUSH32 0x8C379A000000000000000000000000000000000000000000000000000000000 DUP2 MSTORE PUSH1 0x4 ADD PUSH2 0x3CD SWAP1 PUSH2 0x18D5 JUMP JUMPDEST PUSH1 0x40 MLOAD DUP1 SWAP2 SUB SWAP1 REVERT JUMPDEST PUSH1 0x0 DUP2 PUSH1 0x40 ADD MLOAD GT PUSH2 0x41D JUMPI PUSH1 0x40 MLOAD PUSH32 0x8C379A000000000000000000000000000000000000000000000000000000000 DUP2 MSTORE PUSH1 0x4 ADD PUSH2 0x414 SWAP1 PUSH2 0x1935 JUMP JUMPDEST PUSH1 0x40 MLOAD DUP1 SWAP2 SUB SWAP1 REVERT JUMPDEST PUSH1 0x0 DUP5 SWAP1 POP DUP1 PUSH20 0xFFFFFFFFFFFFFFFFFFFFFFFFFFFFFFFFFFFFFFFF AND PUSH4 0x23B872DD ADDRESS CALLER DUP10 PUSH1 0x40 MLOAD DUP5 PUSH4 0xFFFFFFFF AND PUSH1 0xE0 SHL DUP2 MSTORE PUSH1 0x4 ADD PUSH2 0x45F SWAP4 SWAP3 SWAP2 SWAP1 PUSH2 0x17D6 JUMP JUMPDEST PUSH1 0x20 PUSH1 0x40 MLOAD DUP1 DUP4 SUB DUP2 PUSH1 0x0 DUP8 DUP1 EXTCODESIZE ISZERO DUP1 ISZERO PUSH2 0x479 JUMPI PUSH1 0x0 DUP1 REVERT JUMPDEST POP GAS CALL ISZERO DUP1 ISZERO PUSH2 0x48D JUMPI RETURNDATASIZE PUSH1 0x0 DUP1 RETURNDATACOPY RETURNDATASIZE PUSH1 0x0 REVERT JUMPDEST POP POP POP POP PUSH1 0x40 MLOAD RETURNDATASIZE PUSH1 0x1F NOT PUSH1 0x1F DUP3 ADD AND DUP3 ADD DUP1 PUSH1 0x40 MSTORE POP DUP2 ADD SWAP1 PUSH2 0x4B1 SWAP2 SWAP1 PUSH2 0x130D JUMP JUMPDEST PUSH2 0x4F0 JUMPI PUSH1 0x40 MLOAD PUSH32 0x8C379A000000000000000000000000000000000000000000000000000000000 DUP2 MSTORE PUSH1 0x4 ADD PUSH2 0x4E7 SWAP1 PUSH2 0x18B5 JUMP JUMPDEST PUSH1 0x40 MLOAD DUP1 SWAP2 SUB SWAP1 REVERT JUMPDEST DUP6 DUP3 PUSH1 0x40 ADD DUP2 DUP2 MLOAD PUSH2 0x502 SWAP2 SWAP1 PUSH2 0x1B2B JUMP JUMPDEST SWAP2 POP DUP2 DUP2 MSTORE POP POP PUSH1 0x1 SWAP4 POP POP POP POP SWAP3 SWAP2 POP POP JUMP JUMPDEST PUSH1 0x0 DUP1 DUP4 GT PUSH2 0x55A JUMPI PUSH1 0x40 MLOAD PUSH32 0x8C379A000000000000000000000000000000000000000000000000000000000 DUP2 MSTORE PUSH1 0x4 ADD PUSH2 0x551 SWAP1 PUSH2 0x1995 JUMP JUMPDEST PUSH1 0x40 MLOAD DUP1 SWAP2 SUB SWAP1 REVERT JUMPDEST PUSH1 0x40 MLOAD PUSH1 0x20 ADD PUSH2 0x569 SWAP1 PUSH2 0x1798 JUMP JUMPDEST PUSH1 0x40 MLOAD PUSH1 0x20 DUP2 DUP4 SUB SUB DUP2 MSTORE SWAP1 PUSH1 0x40 MSTORE DUP1 MLOAD SWAP1 PUSH1 0x20 ADD KECCAK256 DUP3 PUSH1 0x40 MLOAD PUSH1 0x20 ADD PUSH2 0x590 SWAP2 SWAP1 PUSH2 0x177D JUMP JUMPDEST PUSH1 0x40 MLOAD PUSH1 0x20 DUP2 DUP4 SUB SUB DUP2 MSTORE SWAP1 PUSH1 0x40 MSTORE DUP1 MLOAD SWAP1 PUSH1 0x20 ADD KECCAK256 EQ ISZERO PUSH2 0x5E7 JUMPI PUSH1 0x40 MLOAD PUSH32 0x8C379A000000000000000000000000000000000000000000000000000000000 DUP2 MSTORE PUSH1 0x4 ADD PUSH2 0x5DE SWAP1 PUSH2 0x1975 JUMP JUMPDEST PUSH1 0x40 MLOAD DUP1 SWAP2 SUB SWAP1 REVERT JUMPDEST PUSH2 0x5F0 DUP3 PUSH2 0xEBB JUMP JUMPDEST PUSH1 0x0 PUSH1 0x2 PUSH1 0x0 DUP5 PUSH20 0xFFFFFFFFFFFFFFFFFFFFFFFFFFFFFFFFFFFFFFFF AND PUSH20 0xFFFFFFFFFFFFFFFFFFFFFFFFFFFFFFFFFFFFFFFF AND DUP2 MSTORE PUSH1 0x20 ADD SWAP1 DUP2 MSTORE PUSH1 0x20 ADD PUSH1 0x0 KECCAK256 SLOAD SWAP1 POP PUSH1 0x0 DUP4 SWAP1 POP DUP5 DUP2 PUSH20 0xFFFFFFFFFFFFFFFFFFFFFFFFFFFFFFFFFFFFFFFF AND PUSH4 0xDD62ED3E CALLER ADDRESS PUSH1 0x40 MLOAD DUP4 PUSH4 0xFFFFFFFF AND PUSH1 0xE0 SHL DUP2 MSTORE PUSH1 0x4 ADD PUSH2 0x675 SWAP3 SWAP2 SWAP1 PUSH2 0x17AD JUMP JUMPDEST PUSH1 0x20 PUSH1 0x40 MLOAD DUP1 DUP4 SUB DUP2 DUP7 DUP1 EXTCODESIZE ISZERO DUP1 ISZERO PUSH2 0x68D JUMPI PUSH1 0x0 DUP1 REVERT JUMPDEST POP GAS STATICCALL ISZERO DUP1 ISZERO PUSH2 0x6A1 JUMPI RETURNDATASIZE PUSH1 0x0 DUP1 RETURNDATACOPY RETURNDATASIZE PUSH1 0x0 REVERT JUMPDEST POP POP POP POP PUSH1 0x40 MLOAD RETURNDATASIZE PUSH1 0x1F NOT PUSH1 0x1F DUP3 ADD AND DUP3 ADD DUP1 PUSH1 0x40 MSTORE POP DUP2 ADD SWAP1 PUSH2 0x6C5 SWAP2 SWAP1 PUSH2 0x1383 JUMP JUMPDEST LT ISZERO PUSH2 0x798 JUMPI DUP1 PUSH20 0xFFFFFFFFFFFFFFFFFFFFFFFFFFFFFFFFFFFFFFFF AND PUSH4 0x95EA7B3 ADDRESS DUP8 PUSH1 0x40 MLOAD DUP4 PUSH4 0xFFFFFFFF AND PUSH1 0xE0 SHL DUP2 MSTORE PUSH1 0x4 ADD PUSH2 0x706 SWAP3 SWAP2 SWAP1 PUSH2 0x180D JUMP JUMPDEST PUSH1 0x20 PUSH1 0x40 MLOAD DUP1 DUP4 SUB DUP2 PUSH1 0x0 DUP8 DUP1 EXTCODESIZE ISZERO DUP1 ISZERO PUSH2 0x720 JUMPI PUSH1 0x0 DUP1 REVERT JUMPDEST POP GAS CALL ISZERO DUP1 ISZERO PUSH2 0x734 JUMPI RETURNDATASIZE PUSH1 0x0 DUP1 RETURNDATACOPY RETURNDATASIZE PUSH1 0x0 REVERT JUMPDEST POP POP POP POP PUSH1 0x40 MLOAD RETURNDATASIZE PUSH1 0x1F NOT PUSH1 0x1F DUP3 ADD AND DUP3 ADD DUP1 PUSH1 0x40 MSTORE POP DUP2 ADD SWAP1 PUSH2 0x758 SWAP2 SWAP1 PUSH2 0x130D JUMP JUMPDEST PUSH2 0x797 JUMPI PUSH1 0x40 MLOAD PUSH32 0x8C379A000000000000000000000000000000000000000000000000000000000 DUP2 MSTORE PUSH1 0x4 ADD PUSH2 0x78E SWAP1 PUSH2 0x19B5 JUMP JUMPDEST PUSH1 0x40 MLOAD DUP1 SWAP2 SUB SWAP1 REVERT JUMPDEST JUMPDEST DUP1 PUSH20 0xFFFFFFFFFFFFFFFFFFFFFFFFFFFFFFFFFFFFFFFF AND PUSH4 0x23B872DD CALLER ADDRESS DUP9 PUSH1 0x40 MLOAD DUP5 PUSH4 0xFFFFFFFF AND PUSH1 0xE0 SHL DUP2 MSTORE PUSH1 0x4 ADD PUSH2 0x7D5 SWAP4 SWAP3 SWAP2 SWAP1 PUSH2 0x17D6 JUMP JUMPDEST PUSH1 0x20 PUSH1 0x40 MLOAD DUP1 DUP4 SUB DUP2 PUSH1 0x0 DUP8 DUP1 EXTCODESIZE ISZERO DUP1 ISZERO PUSH2 0x7EF JUMPI PUSH1 0x0 DUP1 REVERT JUMPDEST POP GAS CALL ISZERO DUP1 ISZERO PUSH2 0x803 JUMPI RETURNDATASIZE PUSH1 0x0 DUP1 RETURNDATACOPY RETURNDATASIZE PUSH1 0x0 REVERT JUMPDEST POP POP POP POP PUSH1 0x40 MLOAD RETURNDATASIZE PUSH1 0x1F NOT PUSH1 0x1F DUP3 ADD AND DUP3 ADD DUP1 PUSH1 0x40 MSTORE POP DUP2 ADD SWAP1 PUSH2 0x827 SWAP2 SWAP1 PUSH2 0x130D JUMP JUMPDEST PUSH2 0x866 JUMPI PUSH1 0x40 MLOAD PUSH32 0x8C379A000000000000000000000000000000000000000000000000000000000 DUP2 MSTORE PUSH1 0x4 ADD PUSH2 0x85D SWAP1 PUSH2 0x18F5 JUMP JUMPDEST PUSH1 0x40 MLOAD DUP1 SWAP2 SUB SWAP1 REVERT JUMPDEST DUP5 PUSH1 0x3 PUSH1 0x0 CALLER PUSH20 0xFFFFFFFFFFFFFFFFFFFFFFFFFFFFFFFFFFFFFFFF AND PUSH20 0xFFFFFFFFFFFFFFFFFFFFFFFFFFFFFFFFFFFFFFFF AND DUP2 MSTORE PUSH1 0x20 ADD SWAP1 DUP2 MSTORE PUSH1 0x20 ADD PUSH1 0x0 KECCAK256 PUSH1 0x0 DUP5 DUP2 MSTORE PUSH1 0x20 ADD SWAP1 DUP2 MSTORE PUSH1 0x20 ADD PUSH1 0x0 KECCAK256 PUSH1 0x2 ADD PUSH1 0x0 DUP3 DUP3 SLOAD PUSH2 0x8C9 SWAP2 SWAP1 PUSH2 0x1AD5 JUMP JUMPDEST SWAP3 POP POP DUP2 SWAP1 SSTORE POP PUSH1 0x1 SWAP3 POP POP POP SWAP3 SWAP2 POP POP JUMP JUMPDEST PUSH1 0x60 DUP2 PUSH20 0xFFFFFFFFFFFFFFFFFFFFFFFFFFFFFFFFFFFFFFFF AND CALLER PUSH20 0xFFFFFFFFFFFFFFFFFFFFFFFFFFFFFFFFFFFFFFFF AND EQ PUSH2 0x94C JUMPI PUSH1 0x40 MLOAD PUSH32 0x8C379A000000000000000000000000000000000000000000000000000000000 DUP2 MSTORE PUSH1 0x4 ADD PUSH2 0x943 SWAP1 PUSH2 0x1895 JUMP JUMPDEST PUSH1 0x40 MLOAD DUP1 SWAP2 SUB SWAP1 REVERT JUMPDEST PUSH1 0x0 PUSH1 0x1 PUSH1 0x0 DUP5 PUSH20 0xFFFFFFFFFFFFFFFFFFFFFFFFFFFFFFFFFFFFFFFF AND PUSH20 0xFFFFFFFFFFFFFFFFFFFFFFFFFFFFFFFFFFFFFFFF AND DUP2 MSTORE PUSH1 0x20 ADD SWAP1 DUP2 MSTORE PUSH1 0x20 ADD PUSH1 0x0 KECCAK256 SLOAD SWAP1 POP PUSH1 0x0 DUP2 PUSH8 0xFFFFFFFFFFFFFFFF DUP2 GT ISZERO PUSH2 0x9AC JUMPI PUSH2 0x9AB PUSH2 0x1D37 JUMP JUMPDEST JUMPDEST PUSH1 0x40 MLOAD SWAP1 DUP1 DUP3 MSTORE DUP1 PUSH1 0x20 MUL PUSH1 0x20 ADD DUP3 ADD PUSH1 0x40 MSTORE DUP1 ISZERO PUSH2 0x9E5 JUMPI DUP2 PUSH1 0x20 ADD JUMPDEST PUSH2 0x9D2 PUSH2 0x1139 JUMP JUMPDEST DUP2 MSTORE PUSH1 0x20 ADD SWAP1 PUSH1 0x1 SWAP1 SUB SWAP1 DUP2 PUSH2 0x9CA JUMPI SWAP1 POP JUMPDEST POP SWAP1 POP PUSH1 0x0 JUMPDEST PUSH1 0x1 DUP4 PUSH2 0x9F8 SWAP2 SWAP1 PUSH2 0x1B2B JUMP JUMPDEST DUP2 LT ISZERO PUSH2 0xB98 JUMPI PUSH1 0x3 PUSH1 0x0 DUP7 PUSH20 0xFFFFFFFFFFFFFFFFFFFFFFFFFFFFFFFFFFFFFFFF AND PUSH20 0xFFFFFFFFFFFFFFFFFFFFFFFFFFFFFFFFFFFFFFFF AND DUP2 MSTORE PUSH1 0x20 ADD SWAP1 DUP2 MSTORE PUSH1 0x20 ADD PUSH1 0x0 KECCAK256 PUSH1 0x0 DUP3 DUP2 MSTORE PUSH1 0x20 ADD SWAP1 DUP2 MSTORE PUSH1 0x20 ADD PUSH1 0x0 KECCAK256 PUSH1 0x40 MLOAD DUP1 PUSH1 0x80 ADD PUSH1 0x40 MSTORE SWAP1 DUP2 PUSH1 0x0 DUP3 ADD PUSH1 0x0 SWAP1 SLOAD SWAP1 PUSH2 0x100 EXP SWAP1 DIV PUSH20 0xFFFFFFFFFFFFFFFFFFFFFFFFFFFFFFFFFFFFFFFF AND PUSH20 0xFFFFFFFFFFFFFFFFFFFFFFFFFFFFFFFFFFFFFFFF AND PUSH20 0xFFFFFFFFFFFFFFFFFFFFFFFFFFFFFFFFFFFFFFFF AND DUP2 MSTORE PUSH1 0x20 ADD PUSH1 0x1 DUP3 ADD DUP1 SLOAD PUSH2 0xAC0 SWAP1 PUSH2 0x1BDA JUMP JUMPDEST DUP1 PUSH1 0x1F ADD PUSH1 0x20 DUP1 SWAP2 DIV MUL PUSH1 0x20 ADD PUSH1 0x40 MLOAD SWAP1 DUP2 ADD PUSH1 0x40 MSTORE DUP1 SWAP3 SWAP2 SWAP1 DUP2 DUP2 MSTORE PUSH1 0x20 ADD DUP3 DUP1 SLOAD PUSH2 0xAEC SWAP1 PUSH2 0x1BDA JUMP JUMPDEST DUP1 ISZERO PUSH2 0xB39 JUMPI DUP1 PUSH1 0x1F LT PUSH2 0xB0E JUMPI PUSH2 0x100 DUP1 DUP4 SLOAD DIV MUL DUP4 MSTORE SWAP2 PUSH1 0x20 ADD SWAP2 PUSH2 0xB39 JUMP JUMPDEST DUP3 ADD SWAP2 SWAP1 PUSH1 0x0 MSTORE PUSH1 0x20 PUSH1 0x0 KECCAK256 SWAP1 JUMPDEST DUP2 SLOAD DUP2 MSTORE SWAP1 PUSH1 0x1 ADD SWAP1 PUSH1 0x20 ADD DUP1 DUP4 GT PUSH2 0xB1C JUMPI DUP3 SWAP1 SUB PUSH1 0x1F AND DUP3 ADD SWAP2 JUMPDEST POP POP POP POP POP DUP2 MSTORE PUSH1 0x20 ADD PUSH1 0x2 DUP3 ADD SLOAD DUP2 MSTORE PUSH1 0x20 ADD PUSH1 0x3 DUP3 ADD PUSH1 0x0 SWAP1 SLOAD SWAP1 PUSH2 0x100 EXP SWAP1 DIV PUSH1 0xFF AND ISZERO ISZERO ISZERO ISZERO DUP2 MSTORE POP POP DUP3 DUP3 DUP2 MLOAD DUP2 LT PUSH2 0xB7A JUMPI PUSH2 0xB79 PUSH2 0x1D08 JUMP JUMPDEST JUMPDEST PUSH1 0x20 MUL PUSH1 0x20 ADD ADD DUP2 SWAP1 MSTORE POP DUP1 DUP1 PUSH2 0xB90 SWAP1 PUSH2 0x1C3D JUMP JUMPDEST SWAP2 POP POP PUSH2 0x9EB JUMP JUMPDEST POP DUP1 SWAP3 POP POP POP SWAP2 SWAP1 POP JUMP JUMPDEST PUSH1 0x60 DUP2 PUSH20 0xFFFFFFFFFFFFFFFFFFFFFFFFFFFFFFFFFFFFFFFF AND CALLER PUSH20 0xFFFFFFFFFFFFFFFFFFFFFFFFFFFFFFFFFFFFFFFF AND EQ PUSH2 0xC13 JUMPI PUSH1 0x40 MLOAD PUSH32 0x8C379A000000000000000000000000000000000000000000000000000000000 DUP2 MSTORE PUSH1 0x4 ADD PUSH2 0xC0A SWAP1 PUSH2 0x1955 JUMP JUMPDEST PUSH1 0x40 MLOAD DUP1 SWAP2 SUB SWAP1 REVERT JUMPDEST PUSH1 0x0 PUSH1 0x1 PUSH1 0x0 DUP5 PUSH20 0xFFFFFFFFFFFFFFFFFFFFFFFFFFFFFFFFFFFFFFFF AND PUSH20 0xFFFFFFFFFFFFFFFFFFFFFFFFFFFFFFFFFFFFFFFF AND DUP2 MSTORE PUSH1 0x20 ADD SWAP1 DUP2 MSTORE PUSH1 0x20 ADD PUSH1 0x0 KECCAK256 SLOAD SWAP1 POP PUSH1 0x60 PUSH1 0x0 JUMPDEST PUSH1 0x1 DUP4 PUSH2 0xC69 SWAP2 SWAP1 PUSH2 0x1B2B JUMP JUMPDEST DUP2 LT ISZERO PUSH2 0xEB0 JUMPI PUSH1 0x0 PUSH1 0x3 PUSH1 0x0 DUP8 PUSH20 0xFFFFFFFFFFFFFFFFFFFFFFFFFFFFFFFFFFFFFFFF AND PUSH20 0xFFFFFFFFFFFFFFFFFFFFFFFFFFFFFFFFFFFFFFFF AND DUP2 MSTORE PUSH1 0x20 ADD SWAP1 DUP2 MSTORE PUSH1 0x20 ADD PUSH1 0x0 KECCAK256 PUSH1 0x0 DUP4 DUP2 MSTORE PUSH1 0x20 ADD SWAP1 DUP2 MSTORE PUSH1 0x20 ADD PUSH1 0x0 KECCAK256 PUSH1 0x40 MLOAD DUP1 PUSH1 0x80 ADD PUSH1 0x40 MSTORE SWAP1 DUP2 PUSH1 0x0 DUP3 ADD PUSH1 0x0 SWAP1 SLOAD SWAP1 PUSH2 0x100 EXP SWAP1 DIV PUSH20 0xFFFFFFFFFFFFFFFFFFFFFFFFFFFFFFFFFFFFFFFF AND PUSH20 0xFFFFFFFFFFFFFFFFFFFFFFFFFFFFFFFFFFFFFFFF AND PUSH20 0xFFFFFFFFFFFFFFFFFFFFFFFFFFFFFFFFFFFFFFFF AND DUP2 MSTORE PUSH1 0x20 ADD PUSH1 0x1 DUP3 ADD DUP1 SLOAD PUSH2 0xD33 SWAP1 PUSH2 0x1BDA JUMP JUMPDEST DUP1 PUSH1 0x1F ADD PUSH1 0x20 DUP1 SWAP2 DIV MUL PUSH1 0x20 ADD PUSH1 0x40 MLOAD SWAP1 DUP2 ADD PUSH1 0x40 MSTORE DUP1 SWAP3 SWAP2 SWAP1 DUP2 DUP2 MSTORE PUSH1 0x20 ADD DUP3 DUP1 SLOAD PUSH2 0xD5F SWAP1 PUSH2 0x1BDA JUMP JUMPDEST DUP1 ISZERO PUSH2 0xDAC JUMPI DUP1 PUSH1 0x1F LT PUSH2 0xD81 JUMPI PUSH2 0x100 DUP1 DUP4 SLOAD DIV MUL DUP4 MSTORE SWAP2 PUSH1 0x20 ADD SWAP2 PUSH2 0xDAC JUMP JUMPDEST DUP3 ADD SWAP2 SWAP1 PUSH1 0x0 MSTORE PUSH1 0x20 PUSH1 0x0 KECCAK256 SWAP1 JUMPDEST DUP2 SLOAD DUP2 MSTORE SWAP1 PUSH1 0x1 ADD SWAP1 PUSH1 0x20 ADD DUP1 DUP4 GT PUSH2 0xD8F JUMPI DUP3 SWAP1 SUB PUSH1 0x1F AND DUP3 ADD SWAP2 JUMPDEST POP POP POP POP POP DUP2 MSTORE PUSH1 0x20 ADD PUSH1 0x2 DUP3 ADD SLOAD DUP2 MSTORE PUSH1 0x20 ADD PUSH1 0x3 DUP3 ADD PUSH1 0x0 SWAP1 SLOAD SWAP1 PUSH2 0x100 EXP SWAP1 DIV PUSH1 0xFF AND ISZERO ISZERO ISZERO ISZERO DUP2 MSTORE POP POP SWAP1 POP PUSH1 0x0 DUP2 PUSH1 0x0 ADD MLOAD SWAP1 POP DUP1 PUSH20 0xFFFFFFFFFFFFFFFFFFFFFFFFFFFFFFFFFFFFFFFF AND PUSH4 0xA9059CBB DUP9 DUP5 PUSH1 0x40 ADD MLOAD PUSH1 0x40 MLOAD DUP4 PUSH4 0xFFFFFFFF AND PUSH1 0xE0 SHL DUP2 MSTORE PUSH1 0x4 ADD PUSH2 0xE24 SWAP3 SWAP2 SWAP1 PUSH2 0x180D JUMP JUMPDEST PUSH1 0x20 PUSH1 0x40 MLOAD DUP1 DUP4 SUB DUP2 PUSH1 0x0 DUP8 DUP1 EXTCODESIZE ISZERO DUP1 ISZERO PUSH2 0xE3E JUMPI PUSH1 0x0 DUP1 REVERT JUMPDEST POP GAS CALL ISZERO DUP1 ISZERO PUSH2 0xE52 JUMPI RETURNDATASIZE PUSH1 0x0 DUP1 RETURNDATACOPY RETURNDATASIZE PUSH1 0x0 REVERT JUMPDEST POP POP POP POP PUSH1 0x40 MLOAD RETURNDATASIZE PUSH1 0x1F NOT PUSH1 0x1F DUP3 ADD AND DUP3 ADD DUP1 PUSH1 0x40 MSTORE POP DUP2 ADD SWAP1 PUSH2 0xE76 SWAP2 SWAP1 PUSH2 0x130D JUMP JUMPDEST DUP5 DUP5 DUP2 MLOAD DUP2 LT PUSH2 0xE89 JUMPI PUSH2 0xE88 PUSH2 0x1D08 JUMP JUMPDEST JUMPDEST PUSH1 0x20 MUL PUSH1 0x20 ADD ADD SWAP1 ISZERO ISZERO SWAP1 DUP2 ISZERO ISZERO DUP2 MSTORE POP POP POP POP DUP1 DUP1 PUSH2 0xEA8 SWAP1 PUSH2 0x1C3D JUMP JUMPDEST SWAP2 POP POP PUSH2 0xC5C JUMP JUMPDEST POP DUP1 SWAP3 POP POP POP SWAP2 SWAP1 POP JUMP JUMPDEST PUSH1 0x0 DUP2 PUSH20 0xFFFFFFFFFFFFFFFFFFFFFFFFFFFFFFFFFFFFFFFF AND PUSH4 0x95D89B41 PUSH1 0x40 MLOAD DUP2 PUSH4 0xFFFFFFFF AND PUSH1 0xE0 SHL DUP2 MSTORE PUSH1 0x4 ADD PUSH1 0x0 PUSH1 0x40 MLOAD DUP1 DUP4 SUB DUP2 DUP7 DUP1 EXTCODESIZE ISZERO DUP1 ISZERO PUSH2 0xF03 JUMPI PUSH1 0x0 DUP1 REVERT JUMPDEST POP GAS STATICCALL ISZERO DUP1 ISZERO PUSH2 0xF17 JUMPI RETURNDATASIZE PUSH1 0x0 DUP1 RETURNDATACOPY RETURNDATASIZE PUSH1 0x0 REVERT JUMPDEST POP POP POP POP PUSH1 0x40 MLOAD RETURNDATASIZE PUSH1 0x0 DUP3 RETURNDATACOPY RETURNDATASIZE PUSH1 0x1F NOT PUSH1 0x1F DUP3 ADD AND DUP3 ADD DUP1 PUSH1 0x40 MSTORE POP DUP2 ADD SWAP1 PUSH2 0xF40 SWAP2 SWAP1 PUSH2 0x133A JUMP JUMPDEST SWAP1 POP PUSH1 0x0 PUSH2 0xF4E PUSH1 0x0 PUSH2 0x1115 JUMP JUMPDEST SWAP1 POP PUSH2 0xF5A PUSH1 0x0 PUSH2 0x1123 JUMP JUMPDEST PUSH1 0x40 MLOAD DUP1 PUSH1 0x80 ADD PUSH1 0x40 MSTORE DUP1 DUP5 PUSH20 0xFFFFFFFFFFFFFFFFFFFFFFFFFFFFFFFFFFFFFFFF AND DUP2 MSTORE PUSH1 0x20 ADD DUP4 DUP2 MSTORE PUSH1 0x20 ADD PUSH1 0x0 DUP2 MSTORE PUSH1 0x20 ADD PUSH1 0x1 ISZERO ISZERO DUP2 MSTORE POP PUSH1 0x3 PUSH1 0x0 CALLER PUSH20 0xFFFFFFFFFFFFFFFFFFFFFFFFFFFFFFFFFFFFFFFF AND PUSH20 0xFFFFFFFFFFFFFFFFFFFFFFFFFFFFFFFFFFFFFFFF AND DUP2 MSTORE PUSH1 0x20 ADD SWAP1 DUP2 MSTORE PUSH1 0x20 ADD PUSH1 0x0 KECCAK256 PUSH1 0x0 DUP4 DUP2 MSTORE PUSH1 0x20 ADD SWAP1 DUP2 MSTORE PUSH1 0x20 ADD PUSH1 0x0 KECCAK256 PUSH1 0x0 DUP3 ADD MLOAD DUP2 PUSH1 0x0 ADD PUSH1 0x0 PUSH2 0x100 EXP DUP2 SLOAD DUP2 PUSH20 0xFFFFFFFFFFFFFFFFFFFFFFFFFFFFFFFFFFFFFFFF MUL NOT AND SWAP1 DUP4 PUSH20 0xFFFFFFFFFFFFFFFFFFFFFFFFFFFFFFFFFFFFFFFF AND MUL OR SWAP1 SSTORE POP PUSH1 0x20 DUP3 ADD MLOAD DUP2 PUSH1 0x1 ADD SWAP1 DUP1 MLOAD SWAP1 PUSH1 0x20 ADD SWAP1 PUSH2 0x1048 SWAP3 SWAP2 SWAP1 PUSH2 0x1179 JUMP JUMPDEST POP PUSH1 0x40 DUP3 ADD MLOAD DUP2 PUSH1 0x2 ADD SSTORE PUSH1 0x60 DUP3 ADD MLOAD DUP2 PUSH1 0x3 ADD PUSH1 0x0 PUSH2 0x100 EXP DUP2 SLOAD DUP2 PUSH1 0xFF MUL NOT AND SWAP1 DUP4 ISZERO ISZERO MUL OR SWAP1 SSTORE POP SWAP1 POP POP DUP1 PUSH1 0x2 PUSH1 0x0 DUP6 PUSH20 0xFFFFFFFFFFFFFFFFFFFFFFFFFFFFFFFFFFFFFFFF AND PUSH20 0xFFFFFFFFFFFFFFFFFFFFFFFFFFFFFFFFFFFFFFFF AND DUP2 MSTORE PUSH1 0x20 ADD SWAP1 DUP2 MSTORE PUSH1 0x20 ADD PUSH1 0x0 KECCAK256 DUP2 SWAP1 SSTORE POP PUSH1 0x1 DUP1 PUSH1 0x0 CALLER PUSH20 0xFFFFFFFFFFFFFFFFFFFFFFFFFFFFFFFFFFFFFFFF AND PUSH20 0xFFFFFFFFFFFFFFFFFFFFFFFFFFFFFFFFFFFFFFFF AND DUP2 MSTORE PUSH1 0x20 ADD SWAP1 DUP2 MSTORE PUSH1 0x20 ADD PUSH1 0x0 KECCAK256 PUSH1 0x0 DUP3 DUP3 SLOAD PUSH2 0x1109 SWAP2 SWAP1 PUSH2 0x1AD5 JUMP JUMPDEST SWAP3 POP POP DUP2 SWAP1 SSTORE POP POP POP POP JUMP JUMPDEST PUSH1 0x0 DUP2 PUSH1 0x0 ADD SLOAD SWAP1 POP SWAP2 SWAP1 POP JUMP JUMPDEST PUSH1 0x1 DUP2 PUSH1 0x0 ADD PUSH1 0x0 DUP3 DUP3 SLOAD ADD SWAP3 POP POP DUP2 SWAP1 SSTORE POP POP JUMP JUMPDEST PUSH1 0x40 MLOAD DUP1 PUSH1 0x80 ADD PUSH1 0x40 MSTORE DUP1 PUSH1 0x0 PUSH20 0xFFFFFFFFFFFFFFFFFFFFFFFFFFFFFFFFFFFFFFFF AND DUP2 MSTORE PUSH1 0x20 ADD PUSH1 0x60 DUP2 MSTORE PUSH1 0x20 ADD PUSH1 0x0 DUP2 MSTORE PUSH1 0x20 ADD PUSH1 0x0 ISZERO ISZERO DUP2 MSTORE POP SWAP1 JUMP JUMPDEST DUP3 DUP1 SLOAD PUSH2 0x1185 SWAP1 PUSH2 0x1BDA JUMP JUMPDEST SWAP1 PUSH1 0x0 MSTORE PUSH1 0x20 PUSH1 0x0 KECCAK256 SWAP1 PUSH1 0x1F ADD PUSH1 0x20 SWAP1 DIV DUP2 ADD SWAP3 DUP3 PUSH2 0x11A7 JUMPI PUSH1 0x0 DUP6 SSTORE PUSH2 0x11EE JUMP JUMPDEST DUP3 PUSH1 0x1F LT PUSH2 0x11C0 JUMPI DUP1 MLOAD PUSH1 0xFF NOT AND DUP4 DUP1 ADD OR DUP6 SSTORE PUSH2 0x11EE JUMP JUMPDEST DUP3 DUP1 ADD PUSH1 0x1 ADD DUP6 SSTORE DUP3 ISZERO PUSH2 0x11EE JUMPI SWAP2 DUP3 ADD JUMPDEST DUP3 DUP2 GT ISZERO PUSH2 0x11ED JUMPI DUP3 MLOAD DUP3 SSTORE SWAP2 PUSH1 0x20 ADD SWAP2 SWAP1 PUSH1 0x1 ADD SWAP1 PUSH2 0x11D2 JUMP JUMPDEST JUMPDEST POP SWAP1 POP PUSH2 0x11FB SWAP2 SWAP1 PUSH2 0x11FF JUMP JUMPDEST POP SWAP1 JUMP JUMPDEST JUMPDEST DUP1 DUP3 GT ISZERO PUSH2 0x1218 JUMPI PUSH1 0x0 DUP2 PUSH1 0x0 SWAP1 SSTORE POP PUSH1 0x1 ADD PUSH2 0x1200 JUMP JUMPDEST POP SWAP1 JUMP JUMPDEST PUSH1 0x0 PUSH2 0x122F PUSH2 0x122A DUP5 PUSH2 0x19FA JUMP JUMPDEST PUSH2 0x19D5 JUMP JUMPDEST SWAP1 POP DUP3 DUP2 MSTORE PUSH1 0x20 DUP2 ADD DUP5 DUP5 DUP5 ADD GT ISZERO PUSH2 0x124B JUMPI PUSH2 0x124A PUSH2 0x1D6B JUMP JUMPDEST JUMPDEST PUSH2 0x1256 DUP5 DUP3 DUP6 PUSH2 0x1BA7 JUMP JUMPDEST POP SWAP4 SWAP3 POP POP POP JUMP JUMPDEST PUSH1 0x0 DUP2 CALLDATALOAD SWAP1 POP PUSH2 0x126D DUP2 PUSH2 0x1FF3 JUMP JUMPDEST SWAP3 SWAP2 POP POP JUMP JUMPDEST PUSH1 0x0 DUP2 MLOAD SWAP1 POP PUSH2 0x1282 DUP2 PUSH2 0x200A JUMP JUMPDEST SWAP3 SWAP2 POP POP JUMP JUMPDEST PUSH1 0x0 DUP3 PUSH1 0x1F DUP4 ADD SLT PUSH2 0x129D JUMPI PUSH2 0x129C PUSH2 0x1D66 JUMP JUMPDEST JUMPDEST DUP2 MLOAD PUSH2 0x12AD DUP5 DUP3 PUSH1 0x20 DUP7 ADD PUSH2 0x121C JUMP JUMPDEST SWAP2 POP POP SWAP3 SWAP2 POP POP JUMP JUMPDEST PUSH1 0x0 DUP2 CALLDATALOAD SWAP1 POP PUSH2 0x12C5 DUP2 PUSH2 0x2021 JUMP JUMPDEST SWAP3 SWAP2 POP POP JUMP JUMPDEST PUSH1 0x0 DUP2 MLOAD SWAP1 POP PUSH2 0x12DA DUP2 PUSH2 0x2021 JUMP JUMPDEST SWAP3 SWAP2 POP POP JUMP JUMPDEST PUSH1 0x0 PUSH1 0x20 DUP3 DUP5 SUB SLT ISZERO PUSH2 0x12F6 JUMPI PUSH2 0x12F5 PUSH2 0x1D75 JUMP JUMPDEST JUMPDEST PUSH1 0x0 PUSH2 0x1304 DUP5 DUP3 DUP6 ADD PUSH2 0x125E JUMP JUMPDEST SWAP2 POP POP SWAP3 SWAP2 POP POP JUMP JUMPDEST PUSH1 0x0 PUSH1 0x20 DUP3 DUP5 SUB SLT ISZERO PUSH2 0x1323 JUMPI PUSH2 0x1322 PUSH2 0x1D75 JUMP JUMPDEST JUMPDEST PUSH1 0x0 PUSH2 0x1331 DUP5 DUP3 DUP6 ADD PUSH2 0x1273 JUMP JUMPDEST SWAP2 POP POP SWAP3 SWAP2 POP POP JUMP JUMPDEST PUSH1 0x0 PUSH1 0x20 DUP3 DUP5 SUB SLT ISZERO PUSH2 0x1350 JUMPI PUSH2 0x134F PUSH2 0x1D75 JUMP JUMPDEST JUMPDEST PUSH1 0x0 DUP3 ADD MLOAD PUSH8 0xFFFFFFFFFFFFFFFF DUP2 GT ISZERO PUSH2 0x136E JUMPI PUSH2 0x136D PUSH2 0x1D70 JUMP JUMPDEST JUMPDEST PUSH2 0x137A DUP5 DUP3 DUP6 ADD PUSH2 0x1288 JUMP JUMPDEST SWAP2 POP POP SWAP3 SWAP2 POP POP JUMP JUMPDEST PUSH1 0x0 PUSH1 0x20 DUP3 DUP5 SUB SLT ISZERO PUSH2 0x1399 JUMPI PUSH2 0x1398 PUSH2 0x1D75 JUMP JUMPDEST JUMPDEST PUSH1 0x0 PUSH2 0x13A7 DUP5 DUP3 DUP6 ADD PUSH2 0x12CB JUMP JUMPDEST SWAP2 POP POP SWAP3 SWAP2 POP POP JUMP JUMPDEST PUSH1 0x0 DUP1 PUSH1 0x40 DUP4 DUP6 SUB SLT ISZERO PUSH2 0x13C7 JUMPI PUSH2 0x13C6 PUSH2 0x1D75 JUMP JUMPDEST JUMPDEST PUSH1 0x0 PUSH2 0x13D5 DUP6 DUP3 DUP7 ADD PUSH2 0x12B6 JUMP JUMPDEST SWAP3 POP POP PUSH1 0x20 PUSH2 0x13E6 DUP6 DUP3 DUP7 ADD PUSH2 0x125E JUMP JUMPDEST SWAP2 POP POP SWAP3 POP SWAP3 SWAP1 POP JUMP JUMPDEST PUSH1 0x0 PUSH2 0x13FC DUP4 DUP4 PUSH2 0x1524 JUMP JUMPDEST PUSH1 0x20 DUP4 ADD SWAP1 POP SWAP3 SWAP2 POP POP JUMP JUMPDEST PUSH1 0x0 PUSH2 0x1414 DUP4 DUP4 PUSH2 0x16FC JUMP JUMPDEST SWAP1 POP SWAP3 SWAP2 POP POP JUMP JUMPDEST PUSH2 0x1425 DUP2 PUSH2 0x1B5F JUMP JUMPDEST DUP3 MSTORE POP POP JUMP JUMPDEST PUSH2 0x1434 DUP2 PUSH2 0x1B5F JUMP JUMPDEST DUP3 MSTORE POP POP JUMP JUMPDEST PUSH2 0x144B PUSH2 0x1446 DUP3 PUSH2 0x1B5F JUMP JUMPDEST PUSH2 0x1C86 JUMP JUMPDEST DUP3 MSTORE POP POP JUMP JUMPDEST PUSH1 0x0 PUSH2 0x145C DUP3 PUSH2 0x1A4B JUMP JUMPDEST PUSH2 0x1466 DUP2 DUP6 PUSH2 0x1A86 JUMP JUMPDEST SWAP4 POP PUSH2 0x1471 DUP4 PUSH2 0x1A2B JUMP JUMPDEST DUP1 PUSH1 0x0 JUMPDEST DUP4 DUP2 LT ISZERO PUSH2 0x14A2 JUMPI DUP2 MLOAD PUSH2 0x1489 DUP9 DUP3 PUSH2 0x13F0 JUMP JUMPDEST SWAP8 POP PUSH2 0x1494 DUP4 PUSH2 0x1A6C JUMP JUMPDEST SWAP3 POP POP PUSH1 0x1 DUP2 ADD SWAP1 POP PUSH2 0x1475 JUMP JUMPDEST POP DUP6 SWAP4 POP POP POP POP SWAP3 SWAP2 POP POP JUMP JUMPDEST PUSH1 0x0 PUSH2 0x14BA DUP3 PUSH2 0x1A56 JUMP JUMPDEST PUSH2 0x14C4 DUP2 DUP6 PUSH2 0x1A97 JUMP JUMPDEST SWAP4 POP DUP4 PUSH1 0x20 DUP3 MUL DUP6 ADD PUSH2 0x14D6 DUP6 PUSH2 0x1A3B JUMP JUMPDEST DUP1 PUSH1 0x0 JUMPDEST DUP6 DUP2 LT ISZERO PUSH2 0x1512 JUMPI DUP5 DUP5 SUB DUP10 MSTORE DUP2 MLOAD PUSH2 0x14F3 DUP6 DUP3 PUSH2 0x1408 JUMP JUMPDEST SWAP5 POP PUSH2 0x14FE DUP4 PUSH2 0x1A79 JUMP JUMPDEST SWAP3 POP PUSH1 0x20 DUP11 ADD SWAP10 POP POP PUSH1 0x1 DUP2 ADD SWAP1 POP PUSH2 0x14DA JUMP JUMPDEST POP DUP3 SWAP8 POP DUP8 SWAP6 POP POP POP POP POP POP SWAP3 SWAP2 POP POP JUMP JUMPDEST PUSH2 0x152D DUP2 PUSH2 0x1B71 JUMP JUMPDEST DUP3 MSTORE POP POP JUMP JUMPDEST PUSH2 0x153C DUP2 PUSH2 0x1B71 JUMP JUMPDEST DUP3 MSTORE POP POP JUMP JUMPDEST PUSH1 0x0 PUSH2 0x154D DUP3 PUSH2 0x1A61 JUMP JUMPDEST PUSH2 0x1557 DUP2 DUP6 PUSH2 0x1AA8 JUMP JUMPDEST SWAP4 POP PUSH2 0x1567 DUP2 DUP6 PUSH1 0x20 DUP7 ADD PUSH2 0x1BA7 JUMP JUMPDEST PUSH2 0x1570 DUP2 PUSH2 0x1D7A JUMP JUMPDEST DUP5 ADD SWAP2 POP POP SWAP3 SWAP2 POP POP JUMP JUMPDEST PUSH1 0x0 PUSH2 0x1588 PUSH1 0x2E DUP4 PUSH2 0x1AB9 JUMP JUMPDEST SWAP2 POP PUSH2 0x1593 DUP3 PUSH2 0x1D98 JUMP JUMPDEST PUSH1 0x40 DUP3 ADD SWAP1 POP SWAP2 SWAP1 POP JUMP JUMPDEST PUSH1 0x0 PUSH2 0x15AB PUSH1 0x22 DUP4 PUSH2 0x1AB9 JUMP JUMPDEST SWAP2 POP PUSH2 0x15B6 DUP3 PUSH2 0x1DE7 JUMP JUMPDEST PUSH1 0x40 DUP3 ADD SWAP1 POP SWAP2 SWAP1 POP JUMP JUMPDEST PUSH1 0x0 PUSH2 0x15CE PUSH1 0x17 DUP4 PUSH2 0x1AB9 JUMP JUMPDEST SWAP2 POP PUSH2 0x15D9 DUP3 PUSH2 0x1E36 JUMP JUMPDEST PUSH1 0x20 DUP3 ADD SWAP1 POP SWAP2 SWAP1 POP JUMP JUMPDEST PUSH1 0x0 PUSH2 0x15F1 PUSH1 0x21 DUP4 PUSH2 0x1AB9 JUMP JUMPDEST SWAP2 POP PUSH2 0x15FC DUP3 PUSH2 0x1E5F JUMP JUMPDEST PUSH1 0x40 DUP3 ADD SWAP1 POP SWAP2 SWAP1 POP JUMP JUMPDEST PUSH1 0x0 PUSH2 0x1614 PUSH1 0x1C DUP4 PUSH2 0x1AB9 JUMP JUMPDEST SWAP2 POP PUSH2 0x161F DUP3 PUSH2 0x1EAE JUMP JUMPDEST PUSH1 0x20 DUP3 ADD SWAP1 POP SWAP2 SWAP1 POP JUMP JUMPDEST PUSH1 0x0 PUSH2 0x1637 PUSH1 0x16 DUP4 PUSH2 0x1AB9 JUMP JUMPDEST SWAP2 POP PUSH2 0x1642 DUP3 PUSH2 0x1ED7 JUMP JUMPDEST PUSH1 0x20 DUP3 ADD SWAP1 POP SWAP2 SWAP1 POP JUMP JUMPDEST PUSH1 0x0 PUSH2 0x165A PUSH1 0x29 DUP4 PUSH2 0x1AB9 JUMP JUMPDEST SWAP2 POP PUSH2 0x1665 DUP3 PUSH2 0x1F00 JUMP JUMPDEST PUSH1 0x40 DUP3 ADD SWAP1 POP SWAP2 SWAP1 POP JUMP JUMPDEST PUSH1 0x0 PUSH2 0x167D PUSH1 0x17 DUP4 PUSH2 0x1AB9 JUMP JUMPDEST SWAP2 POP PUSH2 0x1688 DUP3 PUSH2 0x1F4F JUMP JUMPDEST PUSH1 0x20 DUP3 ADD SWAP1 POP SWAP2 SWAP1 POP JUMP JUMPDEST PUSH1 0x0 PUSH2 0x16A0 PUSH1 0x0 DUP4 PUSH2 0x1ACA JUMP JUMPDEST SWAP2 POP PUSH2 0x16AB DUP3 PUSH2 0x1F78 JUMP JUMPDEST PUSH1 0x0 DUP3 ADD SWAP1 POP SWAP2 SWAP1 POP JUMP JUMPDEST PUSH1 0x0 PUSH2 0x16C3 PUSH1 0x1B DUP4 PUSH2 0x1AB9 JUMP JUMPDEST SWAP2 POP PUSH2 0x16CE DUP3 PUSH2 0x1F7B JUMP JUMPDEST PUSH1 0x20 DUP3 ADD SWAP1 POP SWAP2 SWAP1 POP JUMP JUMPDEST PUSH1 0x0 PUSH2 0x16E6 PUSH1 0x2C DUP4 PUSH2 0x1AB9 JUMP JUMPDEST SWAP2 POP PUSH2 0x16F1 DUP3 PUSH2 0x1FA4 JUMP JUMPDEST PUSH1 0x40 DUP3 ADD SWAP1 POP SWAP2 SWAP1 POP JUMP JUMPDEST PUSH1 0x0 PUSH1 0x80 DUP4 ADD PUSH1 0x0 DUP4 ADD MLOAD PUSH2 0x1714 PUSH1 0x0 DUP7 ADD DUP3 PUSH2 0x141C JUMP JUMPDEST POP PUSH1 0x20 DUP4 ADD MLOAD DUP5 DUP3 SUB PUSH1 0x20 DUP7 ADD MSTORE PUSH2 0x172C DUP3 DUP3 PUSH2 0x1542 JUMP JUMPDEST SWAP2 POP POP PUSH1 0x40 DUP4 ADD MLOAD PUSH2 0x1741 PUSH1 0x40 DUP7 ADD DUP3 PUSH2 0x175F JUMP JUMPDEST POP PUSH1 0x60 DUP4 ADD MLOAD PUSH2 0x1754 PUSH1 0x60 DUP7 ADD DUP3 PUSH2 0x1524 JUMP JUMPDEST POP DUP1 SWAP2 POP POP SWAP3 SWAP2 POP POP JUMP JUMPDEST PUSH2 0x1768 DUP2 PUSH2 0x1B9D JUMP JUMPDEST DUP3 MSTORE POP POP JUMP JUMPDEST PUSH2 0x1777 DUP2 PUSH2 0x1B9D JUMP JUMPDEST DUP3 MSTORE POP POP JUMP JUMPDEST PUSH1 0x0 PUSH2 0x1789 DUP3 DUP5 PUSH2 0x143A JUMP JUMPDEST PUSH1 0x14 DUP3 ADD SWAP2 POP DUP2 SWAP1 POP SWAP3 SWAP2 POP POP JUMP JUMPDEST PUSH1 0x0 PUSH2 0x17A3 DUP3 PUSH2 0x1693 JUMP JUMPDEST SWAP2 POP DUP2 SWAP1 POP SWAP2 SWAP1 POP JUMP JUMPDEST PUSH1 0x0 PUSH1 0x40 DUP3 ADD SWAP1 POP PUSH2 0x17C2 PUSH1 0x0 DUP4 ADD DUP6 PUSH2 0x142B JUMP JUMPDEST PUSH2 0x17CF PUSH1 0x20 DUP4 ADD DUP5 PUSH2 0x142B JUMP JUMPDEST SWAP4 SWAP3 POP POP POP JUMP JUMPDEST PUSH1 0x0 PUSH1 0x60 DUP3 ADD SWAP1 POP PUSH2 0x17EB PUSH1 0x0 DUP4 ADD DUP7 PUSH2 0x142B JUMP JUMPDEST PUSH2 0x17F8 PUSH1 0x20 DUP4 ADD DUP6 PUSH2 0x142B JUMP JUMPDEST PUSH2 0x1805 PUSH1 0x40 DUP4 ADD DUP5 PUSH2 0x176E JUMP JUMPDEST SWAP5 SWAP4 POP POP POP POP JUMP JUMPDEST PUSH1 0x0 PUSH1 0x40 DUP3 ADD SWAP1 POP PUSH2 0x1822 PUSH1 0x0 DUP4 ADD DUP6 PUSH2 0x142B JUMP JUMPDEST PUSH2 0x182F PUSH1 0x20 DUP4 ADD DUP5 PUSH2 0x176E JUMP JUMPDEST SWAP4 SWAP3 POP POP POP JUMP JUMPDEST PUSH1 0x0 PUSH1 0x20 DUP3 ADD SWAP1 POP DUP2 DUP2 SUB PUSH1 0x0 DUP4 ADD MSTORE PUSH2 0x1850 DUP2 DUP5 PUSH2 0x1451 JUMP JUMPDEST SWAP1 POP SWAP3 SWAP2 POP POP JUMP JUMPDEST PUSH1 0x0 PUSH1 0x20 DUP3 ADD SWAP1 POP DUP2 DUP2 SUB PUSH1 0x0 DUP4 ADD MSTORE PUSH2 0x1872 DUP2 DUP5 PUSH2 0x14AF JUMP JUMPDEST SWAP1 POP SWAP3 SWAP2 POP POP JUMP JUMPDEST PUSH1 0x0 PUSH1 0x20 DUP3 ADD SWAP1 POP PUSH2 0x188F PUSH1 0x0 DUP4 ADD DUP5 PUSH2 0x1533 JUMP JUMPDEST SWAP3 SWAP2 POP POP JUMP JUMPDEST PUSH1 0x0 PUSH1 0x20 DUP3 ADD SWAP1 POP DUP2 DUP2 SUB PUSH1 0x0 DUP4 ADD MSTORE PUSH2 0x18AE DUP2 PUSH2 0x157B JUMP JUMPDEST SWAP1 POP SWAP2 SWAP1 POP JUMP JUMPDEST PUSH1 0x0 PUSH1 0x20 DUP3 ADD SWAP1 POP DUP2 DUP2 SUB PUSH1 0x0 DUP4 ADD MSTORE PUSH2 0x18CE DUP2 PUSH2 0x159E JUMP JUMPDEST SWAP1 POP SWAP2 SWAP1 POP JUMP JUMPDEST PUSH1 0x0 PUSH1 0x20 DUP3 ADD SWAP1 POP DUP2 DUP2 SUB PUSH1 0x0 DUP4 ADD MSTORE PUSH2 0x18EE DUP2 PUSH2 0x15C1 JUMP JUMPDEST SWAP1 POP SWAP2 SWAP1 POP JUMP JUMPDEST PUSH1 0x0 PUSH1 0x20 DUP3 ADD SWAP1 POP DUP2 DUP2 SUB PUSH1 0x0 DUP4 ADD MSTORE PUSH2 0x190E DUP2 PUSH2 0x15E4 JUMP JUMPDEST SWAP1 POP SWAP2 SWAP1 POP JUMP JUMPDEST PUSH1 0x0 PUSH1 0x20 DUP3 ADD SWAP1 POP DUP2 DUP2 SUB PUSH1 0x0 DUP4 ADD MSTORE PUSH2 0x192E DUP2 PUSH2 0x1607 JUMP JUMPDEST SWAP1 POP SWAP2 SWAP1 POP JUMP JUMPDEST PUSH1 0x0 PUSH1 0x20 DUP3 ADD SWAP1 POP DUP2 DUP2 SUB PUSH1 0x0 DUP4 ADD MSTORE PUSH2 0x194E DUP2 PUSH2 0x162A JUMP JUMPDEST SWAP1 POP SWAP2 SWAP1 POP JUMP JUMPDEST PUSH1 0x0 PUSH1 0x20 DUP3 ADD SWAP1 POP DUP2 DUP2 SUB PUSH1 0x0 DUP4 ADD MSTORE PUSH2 0x196E DUP2 PUSH2 0x164D JUMP JUMPDEST SWAP1 POP SWAP2 SWAP1 POP JUMP JUMPDEST PUSH1 0x0 PUSH1 0x20 DUP3 ADD SWAP1 POP DUP2 DUP2 SUB PUSH1 0x0 DUP4 ADD MSTORE PUSH2 0x198E DUP2 PUSH2 0x1670 JUMP JUMPDEST SWAP1 POP SWAP2 SWAP1 POP JUMP JUMPDEST PUSH1 0x0 PUSH1 0x20 DUP3 ADD SWAP1 POP DUP2 DUP2 SUB PUSH1 0x0 DUP4 ADD MSTORE PUSH2 0x19AE DUP2 PUSH2 0x16B6 JUMP JUMPDEST SWAP1 POP SWAP2 SWAP1 POP JUMP JUMPDEST PUSH1 0x0 PUSH1 0x20 DUP3 ADD SWAP1 POP DUP2 DUP2 SUB PUSH1 0x0 DUP4 ADD MSTORE PUSH2 0x19CE DUP2 PUSH2 0x16D9 JUMP JUMPDEST SWAP1 POP SWAP2 SWAP1 POP JUMP JUMPDEST PUSH1 0x0 PUSH2 0x19DF PUSH2 0x19F0 JUMP JUMPDEST SWAP1 POP PUSH2 0x19EB DUP3 DUP3 PUSH2 0x1C0C JUMP JUMPDEST SWAP2 SWAP1 POP JUMP JUMPDEST PUSH1 0x0 PUSH1 0x40 MLOAD SWAP1 POP SWAP1 JUMP JUMPDEST PUSH1 0x0 PUSH8 0xFFFFFFFFFFFFFFFF DUP3 GT ISZERO PUSH2 0x1A15 JUMPI PUSH2 0x1A14 PUSH2 0x1D37 JUMP JUMPDEST JUMPDEST PUSH2 0x1A1E DUP3 PUSH2 0x1D7A JUMP JUMPDEST SWAP1 POP PUSH1 0x20 DUP2 ADD SWAP1 POP SWAP2 SWAP1 POP JUMP JUMPDEST PUSH1 0x0 DUP2 SWAP1 POP PUSH1 0x20 DUP3 ADD SWAP1 POP SWAP2 SWAP1 POP JUMP JUMPDEST PUSH1 0x0 DUP2 SWAP1 POP PUSH1 0x20 DUP3 ADD SWAP1 POP SWAP2 SWAP1 POP JUMP JUMPDEST PUSH1 0x0 DUP2 MLOAD SWAP1 POP SWAP2 SWAP1 POP JUMP JUMPDEST PUSH1 0x0 DUP2 MLOAD SWAP1 POP SWAP2 SWAP1 POP JUMP JUMPDEST PUSH1 0x0 DUP2 MLOAD SWAP1 POP SWAP2 SWAP1 POP JUMP JUMPDEST PUSH1 0x0 PUSH1 0x20 DUP3 ADD SWAP1 POP SWAP2 SWAP1 POP JUMP JUMPDEST PUSH1 0x0 PUSH1 0x20 DUP3 ADD SWAP1 POP SWAP2 SWAP1 POP JUMP JUMPDEST PUSH1 0x0 DUP3 DUP3 MSTORE PUSH1 0x20 DUP3 ADD SWAP1 POP SWAP3 SWAP2 POP POP JUMP JUMPDEST PUSH1 0x0 DUP3 DUP3 MSTORE PUSH1 0x20 DUP3 ADD SWAP1 POP SWAP3 SWAP2 POP POP JUMP JUMPDEST PUSH1 0x0 DUP3 DUP3 MSTORE PUSH1 0x20 DUP3 ADD SWAP1 POP SWAP3 SWAP2 POP POP JUMP JUMPDEST PUSH1 0x0 DUP3 DUP3 MSTORE PUSH1 0x20 DUP3 ADD SWAP1 POP SWAP3 SWAP2 POP POP JUMP JUMPDEST PUSH1 0x0 DUP2 SWAP1 POP SWAP3 SWAP2 POP POP JUMP JUMPDEST PUSH1 0x0 PUSH2 0x1AE0 DUP3 PUSH2 0x1B9D JUMP JUMPDEST SWAP2 POP PUSH2 0x1AEB DUP4 PUSH2 0x1B9D JUMP JUMPDEST SWAP3 POP DUP3 PUSH32 0xFFFFFFFFFFFFFFFFFFFFFFFFFFFFFFFFFFFFFFFFFFFFFFFFFFFFFFFFFFFFFFFF SUB DUP3 GT ISZERO PUSH2 0x1B20 JUMPI PUSH2 0x1B1F PUSH2 0x1CAA JUMP JUMPDEST JUMPDEST DUP3 DUP3 ADD SWAP1 POP SWAP3 SWAP2 POP POP JUMP JUMPDEST PUSH1 0x0 PUSH2 0x1B36 DUP3 PUSH2 0x1B9D JUMP JUMPDEST SWAP2 POP PUSH2 0x1B41 DUP4 PUSH2 0x1B9D JUMP JUMPDEST SWAP3 POP DUP3 DUP3 LT ISZERO PUSH2 0x1B54 JUMPI PUSH2 0x1B53 PUSH2 0x1CAA JUMP JUMPDEST JUMPDEST DUP3 DUP3 SUB SWAP1 POP SWAP3 SWAP2 POP POP JUMP JUMPDEST PUSH1 0x0 PUSH2 0x1B6A DUP3 PUSH2 0x1B7D JUMP JUMPDEST SWAP1 POP SWAP2 SWAP1 POP JUMP JUMPDEST PUSH1 0x0 DUP2 ISZERO ISZERO SWAP1 POP SWAP2 SWAP1 POP JUMP JUMPDEST PUSH1 0x0 PUSH20 0xFFFFFFFFFFFFFFFFFFFFFFFFFFFFFFFFFFFFFFFF DUP3 AND SWAP1 POP SWAP2 SWAP1 POP JUMP JUMPDEST PUSH1 0x0 DUP2 SWAP1 POP SWAP2 SWAP1 POP JUMP JUMPDEST PUSH1 0x0 JUMPDEST DUP4 DUP2 LT ISZERO PUSH2 0x1BC5 JUMPI DUP1 DUP3 ADD MLOAD DUP2 DUP5 ADD MSTORE PUSH1 0x20 DUP2 ADD SWAP1 POP PUSH2 0x1BAA JUMP JUMPDEST DUP4 DUP2 GT ISZERO PUSH2 0x1BD4 JUMPI PUSH1 0x0 DUP5 DUP5 ADD MSTORE JUMPDEST POP POP POP POP JUMP JUMPDEST PUSH1 0x0 PUSH1 0x2 DUP3 DIV SWAP1 POP PUSH1 0x1 DUP3 AND DUP1 PUSH2 0x1BF2 JUMPI PUSH1 0x7F DUP3 AND SWAP2 POP JUMPDEST PUSH1 0x20 DUP3 LT DUP2 EQ ISZERO PUSH2 0x1C06 JUMPI PUSH2 0x1C05 PUSH2 0x1CD9 JUMP JUMPDEST JUMPDEST POP SWAP2 SWAP1 POP JUMP JUMPDEST PUSH2 0x1C15 DUP3 PUSH2 0x1D7A JUMP JUMPDEST DUP2 ADD DUP2 DUP2 LT PUSH8 0xFFFFFFFFFFFFFFFF DUP3 GT OR ISZERO PUSH2 0x1C34 JUMPI PUSH2 0x1C33 PUSH2 0x1D37 JUMP JUMPDEST JUMPDEST DUP1 PUSH1 0x40 MSTORE POP POP POP JUMP JUMPDEST PUSH1 0x0 PUSH2 0x1C48 DUP3 PUSH2 0x1B9D JUMP JUMPDEST SWAP2 POP PUSH32 0xFFFFFFFFFFFFFFFFFFFFFFFFFFFFFFFFFFFFFFFFFFFFFFFFFFFFFFFFFFFFFFFF DUP3 EQ ISZERO PUSH2 0x1C7B JUMPI PUSH2 0x1C7A PUSH2 0x1CAA JUMP JUMPDEST JUMPDEST PUSH1 0x1 DUP3 ADD SWAP1 POP SWAP2 SWAP1 POP JUMP JUMPDEST PUSH1 0x0 PUSH2 0x1C91 DUP3 PUSH2 0x1C98 JUMP JUMPDEST SWAP1 POP SWAP2 SWAP1 POP JUMP JUMPDEST PUSH1 0x0 PUSH2 0x1CA3 DUP3 PUSH2 0x1D8B JUMP JUMPDEST SWAP1 POP SWAP2 SWAP1 POP JUMP JUMPDEST PUSH32 0x4E487B7100000000000000000000000000000000000000000000000000000000 PUSH1 0x0 MSTORE PUSH1 0x11 PUSH1 0x4 MSTORE PUSH1 0x24 PUSH1 0x0 REVERT JUMPDEST PUSH32 0x4E487B7100000000000000000000000000000000000000000000000000000000 PUSH1 0x0 MSTORE PUSH1 0x22 PUSH1 0x4 MSTORE PUSH1 0x24 PUSH1 0x0 REVERT JUMPDEST PUSH32 0x4E487B7100000000000000000000000000000000000000000000000000000000 PUSH1 0x0 MSTORE PUSH1 0x32 PUSH1 0x4 MSTORE PUSH1 0x24 PUSH1 0x0 REVERT JUMPDEST PUSH32 0x4E487B7100000000000000000000000000000000000000000000000000000000 PUSH1 0x0 MSTORE PUSH1 0x41 PUSH1 0x4 MSTORE PUSH1 0x24 PUSH1 0x0 REVERT JUMPDEST PUSH1 0x0 DUP1 REVERT JUMPDEST PUSH1 0x0 DUP1 REVERT JUMPDEST PUSH1 0x0 DUP1 REVERT JUMPDEST PUSH1 0x0 DUP1 REVERT JUMPDEST PUSH1 0x0 PUSH1 0x1F NOT PUSH1 0x1F DUP4 ADD AND SWAP1 POP SWAP2 SWAP1 POP JUMP JUMPDEST PUSH1 0x0 DUP2 PUSH1 0x60 SHL SWAP1 POP SWAP2 SWAP1 POP JUMP JUMPDEST PUSH32 0x596F752043616E204F6E6C79205669657720596F7572204F776E20506F727466 PUSH1 0x0 DUP3 ADD MSTORE PUSH32 0x6F6C696F2042616C616E63657321000000000000000000000000000000000000 PUSH1 0x20 DUP3 ADD MSTORE POP JUMP JUMPDEST PUSH32 0x5769746864726177204661696C65642120506C65617365205472792041676169 PUSH1 0x0 DUP3 ADD MSTORE PUSH32 0x6E21000000000000000000000000000000000000000000000000000000000000 PUSH1 0x20 DUP3 ADD MSTORE POP JUMP JUMPDEST PUSH32 0x546F6B656E204E6F7420696E20506F7274666F6C696F21000000000000000000 PUSH1 0x0 DUP3 ADD MSTORE POP JUMP JUMPDEST PUSH32 0x4465706F736974204661696C65642120506C656173652054727920416761696E PUSH1 0x0 DUP3 ADD MSTORE PUSH32 0x2100000000000000000000000000000000000000000000000000000000000000 PUSH1 0x20 DUP3 ADD MSTORE POP JUMP JUMPDEST PUSH32 0x576974686472617720416D6F756E742043616E6E6F7420426520302100000000 PUSH1 0x0 DUP3 ADD MSTORE POP JUMP JUMPDEST PUSH32 0x4E6F20546F6B656E7320746F2057697468647261772100000000000000000000 PUSH1 0x0 DUP3 ADD MSTORE POP JUMP JUMPDEST PUSH32 0x596F752043616E204F6E6C7920576974686472617720596F7572204F776E2050 PUSH1 0x0 DUP3 ADD MSTORE PUSH32 0x6F7274666F6C696F210000000000000000000000000000000000000000000000 PUSH1 0x20 DUP3 ADD MSTORE POP JUMP JUMPDEST PUSH32 0x546F6B656E204164647265737320526571756972656421000000000000000000 PUSH1 0x0 DUP3 ADD MSTORE POP JUMP JUMPDEST POP JUMP JUMPDEST PUSH32 0x4465706F73697420416D6F756E742043616E6E6F742042652030210000000000 PUSH1 0x0 DUP3 ADD MSTORE POP JUMP JUMPDEST PUSH32 0x416C6C6F77616E636520417070726F76616C204661696C65642120506C656173 PUSH1 0x0 DUP3 ADD MSTORE PUSH32 0x652054727920416761696E210000000000000000000000000000000000000000 PUSH1 0x20 DUP3 ADD MSTORE POP JUMP JUMPDEST PUSH2 0x1FFC DUP2 PUSH2 0x1B5F JUMP JUMPDEST DUP2 EQ PUSH2 0x2007 JUMPI PUSH1 0x0 DUP1 REVERT JUMPDEST POP JUMP JUMPDEST PUSH2 0x2013 DUP2 PUSH2 0x1B71 JUMP JUMPDEST DUP2 EQ PUSH2 0x201E JUMPI PUSH1 0x0 DUP1 REVERT JUMPDEST POP JUMP JUMPDEST PUSH2 0x202A DUP2 PUSH2 0x1B9D JUMP JUMPDEST DUP2 EQ PUSH2 0x2035 JUMPI PUSH1 0x0 DUP1 REVERT JUMPDEST POP JUMP INVALID LOG2 PUSH5 0x6970667358 0x22 SLT KECCAK256 0x1E SWAP14 JUMPI SGT 0x27 COINBASE PUSH18 0xECE6360D826A4988D5FBA7A90C3A3DF2F67F 0xE4 PUSH3 0x70FD1A PUSH30 0x8E64736F6C63430008070033000000000000000000000000000000000000 "
		},
		"gasEstimates": {
			"creation": {
				"codeDepositCost": "1660400",
				"executionCost": "1743",
				"totalCost": "1662143"
			},
			"external": {
				"depositTokens(uint256,address)": "infinite",
				"getBalances(address)": "infinite",
				"withdrawAll(address)": "infinite",
				"withdrawTokens(uint256,address)": "infinite"
			},
			"internal": {
				"_addToken(address)": "infinite"
			}
		},
		"methodIdentifiers": {
			"depositTokens(uint256,address)": "4f6300a2",
			"getBalances(address)": "c84aae17",
			"withdrawAll(address)": "fa09e630",
			"withdrawTokens(uint256,address)": "398d92bb"
		}
	},
	"abi": [
		{
			"inputs": [
				{
					"internalType": "uint256",
					"name": "amount",
					"type": "uint256"
				},
				{
					"internalType": "address",
					"name": "tokenAddress",
					"type": "address"
				}
			],
			"name": "depositTokens",
			"outputs": [
				{
					"internalType": "bool",
					"name": "",
					"type": "bool"
				}
			],
			"stateMutability": "nonpayable",
			"type": "function"
		},
		{
			"inputs": [
				{
					"internalType": "address",
					"name": "investor",
					"type": "address"
				}
			],
			"name": "getBalances",
			"outputs": [
				{
					"components": [
						{
							"internalType": "address",
							"name": "tokenAddress",
							"type": "address"
						},
						{
							"internalType": "string",
							"name": "symbol",
							"type": "string"
						},
						{
							"internalType": "uint256",
							"name": "balance",
							"type": "uint256"
						},
						{
							"internalType": "bool",
							"name": "exists",
							"type": "bool"
						}
					],
					"internalType": "struct Portfolio.Token[]",
					"name": "",
					"type": "tuple[]"
				}
			],
			"stateMutability": "view",
			"type": "function"
		},
		{
			"inputs": [
				{
					"internalType": "address",
					"name": "investor",
					"type": "address"
				}
			],
			"name": "withdrawAll",
			"outputs": [
				{
					"internalType": "bool[]",
					"name": "",
					"type": "bool[]"
				}
			],
			"stateMutability": "nonpayable",
			"type": "function"
		},
		{
			"inputs": [
				{
					"internalType": "uint256",
					"name": "amount",
					"type": "uint256"
				},
				{
					"internalType": "address",
					"name": "tokenAddress",
					"type": "address"
				}
			],
			"name": "withdrawTokens",
			"outputs": [
				{
					"internalType": "bool",
					"name": "",
					"type": "bool"
				}
			],
			"stateMutability": "nonpayable",
			"type": "function"
		}
	]
}