{
	"data": {
		"bytecode": {
			"linkReferences": {},
			"object": "608060405234801561001057600080fd5b50611dd7806100206000396000f3fe608060405234801561001057600080fd5b506004361061004c5760003560e01c8063398d92bb146100515780634f6300a214610081578063c84aae17146100b1578063fa09e630146100e1575b600080fd5b61006b6004803603810190610066919061120b565b610111565b6040516100789190611652565b60405180910390f35b61009b6004803603810190610096919061120b565b610514565b6040516100a89190611652565b60405180910390f35b6100cb60048036038101906100c69190611168565b610779565b6040516100d89190611630565b60405180910390f35b6100fb60048036038101906100f69190611168565b610a40565b604051610108919061160e565b60405180910390f35b6000808311610155576040517f08c379a000000000000000000000000000000000000000000000000000000000815260040161014c906116cd565b60405180910390fd5b604051602001610164906115d0565b604051602081830303815290604052805190602001208260405160200161018b91906115b5565b6040516020818303038152906040528051906020012014156101e2576040517f08c379a00000000000000000000000000000000000000000000000000000000081526004016101d99061174d565b60405180910390fd5b6000600260008473ffffffffffffffffffffffffffffffffffffffff1673ffffffffffffffffffffffffffffffffffffffff1681526020019081526020016000205490506000600360003373ffffffffffffffffffffffffffffffffffffffff1673ffffffffffffffffffffffffffffffffffffffff16815260200190815260200160002060008381526020019081526020016000206040518060800160405290816000820160009054906101000a900473ffffffffffffffffffffffffffffffffffffffff1673ffffffffffffffffffffffffffffffffffffffff1673ffffffffffffffffffffffffffffffffffffffff1681526020016001820180546102e990611992565b80601f016020809104026020016040519081016040528092919081815260200182805461031590611992565b80156103625780601f1061033757610100808354040283529160200191610362565b820191906000526020600020905b81548152906001019060200180831161034557829003601f168201915b50505050508152602001600282015481526020016003820160009054906101000a900460ff161515151581525050905080606001516103d6576040517f08c379a00000000000000000000000000000000000000000000000000000000081526004016103cd9061168d565b60405180910390fd5b600081604001511161041d576040517f08c379a00000000000000000000000000000000000000000000000000000000081526004016104149061170d565b60405180910390fd5b60008490508073ffffffffffffffffffffffffffffffffffffffff1663a9059cbb33886040518363ffffffff1660e01b815260040161045d9291906115e5565b602060405180830381600087803b15801561047757600080fd5b505af115801561048b573d6000803e3d6000fd5b505050506040513d601f19601f820116820180604052508101906104af9190611195565b6104ee576040517f08c379a00000000000000000000000000000000000000000000000000000000081526004016104e59061166d565b60405180910390fd5b858260400181815161050091906118e3565b915081815250506001935050505092915050565b6000808311610558576040517f08c379a000000000000000000000000000000000000000000000000000000000815260040161054f9061176d565b60405180910390fd5b604051602001610567906115d0565b604051602081830303815290604052805190602001208260405160200161058e91906115b5565b6040516020818303038152906040528051906020012014156105e5576040517f08c379a00000000000000000000000000000000000000000000000000000000081526004016105dc9061174d565b60405180910390fd5b6105ee82610d58565b6000600260008473ffffffffffffffffffffffffffffffffffffffff1673ffffffffffffffffffffffffffffffffffffffff16815260200190815260200160002054905060008390508073ffffffffffffffffffffffffffffffffffffffff1663a9059cbb30876040518363ffffffff1660e01b81526004016106729291906115e5565b602060405180830381600087803b15801561068c57600080fd5b505af11580156106a0573d6000803e3d6000fd5b505050506040513d601f19601f820116820180604052508101906106c49190611195565b610703576040517f08c379a00000000000000000000000000000000000000000000000000000000081526004016106fa906116ad565b60405180910390fd5b84600360003373ffffffffffffffffffffffffffffffffffffffff1673ffffffffffffffffffffffffffffffffffffffff16815260200190815260200160002060008481526020019081526020016000206002016000828254610766919061188d565b9250508190555060019250505092915050565b60608173ffffffffffffffffffffffffffffffffffffffff163373ffffffffffffffffffffffffffffffffffffffff16146107e9576040517f08c379a00000000000000000000000000000000000000000000000000000000081526004016107e09061172d565b60405180910390fd5b6000600160008473ffffffffffffffffffffffffffffffffffffffff1673ffffffffffffffffffffffffffffffffffffffff16815260200190815260200160002054905060008167ffffffffffffffff81111561084957610848611aef565b5b60405190808252806020026020018201604052801561088257816020015b61086f610fd6565b8152602001906001900390816108675790505b50905060005b60018361089591906118e3565b811015610a3557600360008673ffffffffffffffffffffffffffffffffffffffff1673ffffffffffffffffffffffffffffffffffffffff16815260200190815260200160002060008281526020019081526020016000206040518060800160405290816000820160009054906101000a900473ffffffffffffffffffffffffffffffffffffffff1673ffffffffffffffffffffffffffffffffffffffff1673ffffffffffffffffffffffffffffffffffffffff16815260200160018201805461095d90611992565b80601f016020809104026020016040519081016040528092919081815260200182805461098990611992565b80156109d65780601f106109ab576101008083540402835291602001916109d6565b820191906000526020600020905b8154815290600101906020018083116109b957829003601f168201915b50505050508152602001600282015481526020016003820160009054906101000a900460ff161515151581525050828281518110610a1757610a16611ac0565b5b60200260200101819052508080610a2d906119f5565b915050610888565b508092505050919050565b60608173ffffffffffffffffffffffffffffffffffffffff163373ffffffffffffffffffffffffffffffffffffffff1614610ab0576040517f08c379a0000000000000000000000000000000000000000000000000000000008152600401610aa7906116ed565b60405180910390fd5b6000600160008473ffffffffffffffffffffffffffffffffffffffff1673ffffffffffffffffffffffffffffffffffffffff168152602001908152602001600020549050606060005b600183610b0691906118e3565b811015610d4d576000600360008773ffffffffffffffffffffffffffffffffffffffff1673ffffffffffffffffffffffffffffffffffffffff16815260200190815260200160002060008381526020019081526020016000206040518060800160405290816000820160009054906101000a900473ffffffffffffffffffffffffffffffffffffffff1673ffffffffffffffffffffffffffffffffffffffff1673ffffffffffffffffffffffffffffffffffffffff168152602001600182018054610bd090611992565b80601f0160208091040260200160405190810160405280929190818152602001828054610bfc90611992565b8015610c495780601f10610c1e57610100808354040283529160200191610c49565b820191906000526020600020905b815481529060010190602001808311610c2c57829003601f168201915b50505050508152602001600282015481526020016003820160009054906101000a900460ff16151515158152505090506000816000015190508073ffffffffffffffffffffffffffffffffffffffff1663a9059cbb8884604001516040518363ffffffff1660e01b8152600401610cc19291906115e5565b602060405180830381600087803b158015610cdb57600080fd5b505af1158015610cef573d6000803e3d6000fd5b505050506040513d601f19601f82011682018060405250810190610d139190611195565b848481518110610d2657610d25611ac0565b5b60200260200101901515908115158152505050508080610d45906119f5565b915050610af9565b508092505050919050565b60008173ffffffffffffffffffffffffffffffffffffffff166395d89b416040518163ffffffff1660e01b815260040160006040518083038186803b158015610da057600080fd5b505afa158015610db4573d6000803e3d6000fd5b505050506040513d6000823e3d601f19601f82011682018060405250810190610ddd91906111c2565b90506000610deb6000610fb2565b9050610df76000610fc0565b60405180608001604052808473ffffffffffffffffffffffffffffffffffffffff1681526020018381526020016000815260200160011515815250600360003373ffffffffffffffffffffffffffffffffffffffff1673ffffffffffffffffffffffffffffffffffffffff168152602001908152602001600020600083815260200190815260200160002060008201518160000160006101000a81548173ffffffffffffffffffffffffffffffffffffffff021916908373ffffffffffffffffffffffffffffffffffffffff1602179055506020820151816001019080519060200190610ee5929190611016565b506040820151816002015560608201518160030160006101000a81548160ff02191690831515021790555090505080600260008573ffffffffffffffffffffffffffffffffffffffff1673ffffffffffffffffffffffffffffffffffffffff1681526020019081526020016000208190555060018060003373ffffffffffffffffffffffffffffffffffffffff1673ffffffffffffffffffffffffffffffffffffffff1681526020019081526020016000206000828254610fa6919061188d565b92505081905550505050565b600081600001549050919050565b6001816000016000828254019250508190555050565b6040518060800160405280600073ffffffffffffffffffffffffffffffffffffffff16815260200160608152602001600081526020016000151581525090565b82805461102290611992565b90600052602060002090601f016020900481019282611044576000855561108b565b82601f1061105d57805160ff191683800117855561108b565b8280016001018555821561108b579182015b8281111561108a57825182559160200191906001019061106f565b5b509050611098919061109c565b5090565b5b808211156110b557600081600090555060010161109d565b5090565b60006110cc6110c7846117b2565b61178d565b9050828152602081018484840111156110e8576110e7611b23565b5b6110f384828561195f565b509392505050565b60008135905061110a81611d5c565b92915050565b60008151905061111f81611d73565b92915050565b600082601f83011261113a57611139611b1e565b5b815161114a8482602086016110b9565b91505092915050565b60008135905061116281611d8a565b92915050565b60006020828403121561117e5761117d611b2d565b5b600061118c848285016110fb565b91505092915050565b6000602082840312156111ab576111aa611b2d565b5b60006111b984828501611110565b91505092915050565b6000602082840312156111d8576111d7611b2d565b5b600082015167ffffffffffffffff8111156111f6576111f5611b28565b5b61120284828501611125565b91505092915050565b6000806040838503121561122257611221611b2d565b5b600061123085828601611153565b9250506020611241858286016110fb565b9150509250929050565b6000611257838361137f565b60208301905092915050565b600061126f8383611534565b905092915050565b61128081611917565b82525050565b61128f81611917565b82525050565b6112a66112a182611917565b611a3e565b82525050565b60006112b782611803565b6112c1818561183e565b93506112cc836117e3565b8060005b838110156112fd5781516112e4888261124b565b97506112ef83611824565b9250506001810190506112d0565b5085935050505092915050565b60006113158261180e565b61131f818561184f565b935083602082028501611331856117f3565b8060005b8581101561136d578484038952815161134e8582611263565b945061135983611831565b925060208a01995050600181019050611335565b50829750879550505050505092915050565b61138881611929565b82525050565b61139781611929565b82525050565b60006113a882611819565b6113b28185611860565b93506113c281856020860161195f565b6113cb81611b32565b840191505092915050565b60006113e3602283611871565b91506113ee82611b50565b604082019050919050565b6000611406601783611871565b915061141182611b9f565b602082019050919050565b6000611429602183611871565b915061143482611bc8565b604082019050919050565b600061144c601c83611871565b915061145782611c17565b602082019050919050565b600061146f602783611871565b915061147a82611c40565b604082019050919050565b6000611492601683611871565b915061149d82611c8f565b602082019050919050565b60006114b5602c83611871565b91506114c082611cb8565b604082019050919050565b60006114d8601783611871565b91506114e382611d07565b602082019050919050565b60006114fb600083611882565b915061150682611d30565b600082019050919050565b600061151e601b83611871565b915061152982611d33565b602082019050919050565b600060808301600083015161154c6000860182611277565b5060208301518482036020860152611564828261139d565b91505060408301516115796040860182611597565b50606083015161158c606086018261137f565b508091505092915050565b6115a081611955565b82525050565b6115af81611955565b82525050565b60006115c18284611295565b60148201915081905092915050565b60006115db826114ee565b9150819050919050565b60006040820190506115fa6000830185611286565b61160760208301846115a6565b9392505050565b6000602082019050818103600083015261162881846112ac565b905092915050565b6000602082019050818103600083015261164a818461130a565b905092915050565b6000602082019050611667600083018461138e565b92915050565b60006020820190508181036000830152611686816113d6565b9050919050565b600060208201905081810360008301526116a6816113f9565b9050919050565b600060208201905081810360008301526116c68161141c565b9050919050565b600060208201905081810360008301526116e68161143f565b9050919050565b6000602082019050818103600083015261170681611462565b9050919050565b6000602082019050818103600083015261172681611485565b9050919050565b60006020820190508181036000830152611746816114a8565b9050919050565b60006020820190508181036000830152611766816114cb565b9050919050565b6000602082019050818103600083015261178681611511565b9050919050565b60006117976117a8565b90506117a382826119c4565b919050565b6000604051905090565b600067ffffffffffffffff8211156117cd576117cc611aef565b5b6117d682611b32565b9050602081019050919050565b6000819050602082019050919050565b6000819050602082019050919050565b600081519050919050565b600081519050919050565b600081519050919050565b6000602082019050919050565b6000602082019050919050565b600082825260208201905092915050565b600082825260208201905092915050565b600082825260208201905092915050565b600082825260208201905092915050565b600081905092915050565b600061189882611955565b91506118a383611955565b9250827fffffffffffffffffffffffffffffffffffffffffffffffffffffffffffffffff038211156118d8576118d7611a62565b5b828201905092915050565b60006118ee82611955565b91506118f983611955565b92508282101561190c5761190b611a62565b5b828203905092915050565b600061192282611935565b9050919050565b60008115159050919050565b600073ffffffffffffffffffffffffffffffffffffffff82169050919050565b6000819050919050565b60005b8381101561197d578082015181840152602081019050611962565b8381111561198c576000848401525b50505050565b600060028204905060018216806119aa57607f821691505b602082108114156119be576119bd611a91565b5b50919050565b6119cd82611b32565b810181811067ffffffffffffffff821117156119ec576119eb611aef565b5b80604052505050565b6000611a0082611955565b91507fffffffffffffffffffffffffffffffffffffffffffffffffffffffffffffffff821415611a3357611a32611a62565b5b600182019050919050565b6000611a4982611a50565b9050919050565b6000611a5b82611b43565b9050919050565b7f4e487b7100000000000000000000000000000000000000000000000000000000600052601160045260246000fd5b7f4e487b7100000000000000000000000000000000000000000000000000000000600052602260045260246000fd5b7f4e487b7100000000000000000000000000000000000000000000000000000000600052603260045260246000fd5b7f4e487b7100000000000000000000000000000000000000000000000000000000600052604160045260246000fd5b600080fd5b600080fd5b600080fd5b600080fd5b6000601f19601f8301169050919050565b60008160601b9050919050565b7f5769746864726177204661696c65642120506c6561736520547279204167616960008201527f6e21000000000000000000000000000000000000000000000000000000000000602082015250565b7f546f6b656e204e6f7420696e20506f7274666f6c696f21000000000000000000600082015250565b7f4465706f736974204661696c65642120506c656173652054727920416761696e60008201527f2100000000000000000000000000000000000000000000000000000000000000602082015250565b7f576974686472617720416d6f756e742043616e6e6f7420426520302100000000600082015250565b7f596f752043616e6e6f7420576974686472617720416e6f74686572277320506f60008201527f7274666f6c696f00000000000000000000000000000000000000000000000000602082015250565b7f4e6f20546f6b656e7320746f2057697468647261772100000000000000000000600082015250565b7f596f752043616e6e6f74205669657720416e6f74686572277320506f7274666f60008201527f6c696f2042616c616e6365730000000000000000000000000000000000000000602082015250565b7f546f6b656e204164647265737320526571756972656421000000000000000000600082015250565b50565b7f4465706f73697420416d6f756e742043616e6e6f742042652030210000000000600082015250565b611d6581611917565b8114611d7057600080fd5b50565b611d7c81611929565b8114611d8757600080fd5b50565b611d9381611955565b8114611d9e57600080fd5b5056fea2646970667358221220ff89795ee023657eb88352ac4735197f7063dcd146fec70fa27bdc1d39cb308164736f6c63430008070033",
			"opcodes": "PUSH1 0x80 PUSH1 0x40 MSTORE CALLVALUE DUP1 ISZERO PUSH2 0x10 JUMPI PUSH1 0x0 DUP1 REVERT JUMPDEST POP PUSH2 0x1DD7 DUP1 PUSH2 0x20 PUSH1 0x0 CODECOPY PUSH1 0x0 RETURN INVALID PUSH1 0x80 PUSH1 0x40 MSTORE CALLVALUE DUP1 ISZERO PUSH2 0x10 JUMPI PUSH1 0x0 DUP1 REVERT JUMPDEST POP PUSH1 0x4 CALLDATASIZE LT PUSH2 0x4C JUMPI PUSH1 0x0 CALLDATALOAD PUSH1 0xE0 SHR DUP1 PUSH4 0x398D92BB EQ PUSH2 0x51 JUMPI DUP1 PUSH4 0x4F6300A2 EQ PUSH2 0x81 JUMPI DUP1 PUSH4 0xC84AAE17 EQ PUSH2 0xB1 JUMPI DUP1 PUSH4 0xFA09E630 EQ PUSH2 0xE1 JUMPI JUMPDEST PUSH1 0x0 DUP1 REVERT JUMPDEST PUSH2 0x6B PUSH1 0x4 DUP1 CALLDATASIZE SUB DUP2 ADD SWAP1 PUSH2 0x66 SWAP2 SWAP1 PUSH2 0x120B JUMP JUMPDEST PUSH2 0x111 JUMP JUMPDEST PUSH1 0x40 MLOAD PUSH2 0x78 SWAP2 SWAP1 PUSH2 0x1652 JUMP JUMPDEST PUSH1 0x40 MLOAD DUP1 SWAP2 SUB SWAP1 RETURN JUMPDEST PUSH2 0x9B PUSH1 0x4 DUP1 CALLDATASIZE SUB DUP2 ADD SWAP1 PUSH2 0x96 SWAP2 SWAP1 PUSH2 0x120B JUMP JUMPDEST PUSH2 0x514 JUMP JUMPDEST PUSH1 0x40 MLOAD PUSH2 0xA8 SWAP2 SWAP1 PUSH2 0x1652 JUMP JUMPDEST PUSH1 0x40 MLOAD DUP1 SWAP2 SUB SWAP1 RETURN JUMPDEST PUSH2 0xCB PUSH1 0x4 DUP1 CALLDATASIZE SUB DUP2 ADD SWAP1 PUSH2 0xC6 SWAP2 SWAP1 PUSH2 0x1168 JUMP JUMPDEST PUSH2 0x779 JUMP JUMPDEST PUSH1 0x40 MLOAD PUSH2 0xD8 SWAP2 SWAP1 PUSH2 0x1630 JUMP JUMPDEST PUSH1 0x40 MLOAD DUP1 SWAP2 SUB SWAP1 RETURN JUMPDEST PUSH2 0xFB PUSH1 0x4 DUP1 CALLDATASIZE SUB DUP2 ADD SWAP1 PUSH2 0xF6 SWAP2 SWAP1 PUSH2 0x1168 JUMP JUMPDEST PUSH2 0xA40 JUMP JUMPDEST PUSH1 0x40 MLOAD PUSH2 0x108 SWAP2 SWAP1 PUSH2 0x160E JUMP JUMPDEST PUSH1 0x40 MLOAD DUP1 SWAP2 SUB SWAP1 RETURN JUMPDEST PUSH1 0x0 DUP1 DUP4 GT PUSH2 0x155 JUMPI PUSH1 0x40 MLOAD PUSH32 0x8C379A000000000000000000000000000000000000000000000000000000000 DUP2 MSTORE PUSH1 0x4 ADD PUSH2 0x14C SWAP1 PUSH2 0x16CD JUMP JUMPDEST PUSH1 0x40 MLOAD DUP1 SWAP2 SUB SWAP1 REVERT JUMPDEST PUSH1 0x40 MLOAD PUSH1 0x20 ADD PUSH2 0x164 SWAP1 PUSH2 0x15D0 JUMP JUMPDEST PUSH1 0x40 MLOAD PUSH1 0x20 DUP2 DUP4 SUB SUB DUP2 MSTORE SWAP1 PUSH1 0x40 MSTORE DUP1 MLOAD SWAP1 PUSH1 0x20 ADD KECCAK256 DUP3 PUSH1 0x40 MLOAD PUSH1 0x20 ADD PUSH2 0x18B SWAP2 SWAP1 PUSH2 0x15B5 JUMP JUMPDEST PUSH1 0x40 MLOAD PUSH1 0x20 DUP2 DUP4 SUB SUB DUP2 MSTORE SWAP1 PUSH1 0x40 MSTORE DUP1 MLOAD SWAP1 PUSH1 0x20 ADD KECCAK256 EQ ISZERO PUSH2 0x1E2 JUMPI PUSH1 0x40 MLOAD PUSH32 0x8C379A000000000000000000000000000000000000000000000000000000000 DUP2 MSTORE PUSH1 0x4 ADD PUSH2 0x1D9 SWAP1 PUSH2 0x174D JUMP JUMPDEST PUSH1 0x40 MLOAD DUP1 SWAP2 SUB SWAP1 REVERT JUMPDEST PUSH1 0x0 PUSH1 0x2 PUSH1 0x0 DUP5 PUSH20 0xFFFFFFFFFFFFFFFFFFFFFFFFFFFFFFFFFFFFFFFF AND PUSH20 0xFFFFFFFFFFFFFFFFFFFFFFFFFFFFFFFFFFFFFFFF AND DUP2 MSTORE PUSH1 0x20 ADD SWAP1 DUP2 MSTORE PUSH1 0x20 ADD PUSH1 0x0 KECCAK256 SLOAD SWAP1 POP PUSH1 0x0 PUSH1 0x3 PUSH1 0x0 CALLER PUSH20 0xFFFFFFFFFFFFFFFFFFFFFFFFFFFFFFFFFFFFFFFF AND PUSH20 0xFFFFFFFFFFFFFFFFFFFFFFFFFFFFFFFFFFFFFFFF AND DUP2 MSTORE PUSH1 0x20 ADD SWAP1 DUP2 MSTORE PUSH1 0x20 ADD PUSH1 0x0 KECCAK256 PUSH1 0x0 DUP4 DUP2 MSTORE PUSH1 0x20 ADD SWAP1 DUP2 MSTORE PUSH1 0x20 ADD PUSH1 0x0 KECCAK256 PUSH1 0x40 MLOAD DUP1 PUSH1 0x80 ADD PUSH1 0x40 MSTORE SWAP1 DUP2 PUSH1 0x0 DUP3 ADD PUSH1 0x0 SWAP1 SLOAD SWAP1 PUSH2 0x100 EXP SWAP1 DIV PUSH20 0xFFFFFFFFFFFFFFFFFFFFFFFFFFFFFFFFFFFFFFFF AND PUSH20 0xFFFFFFFFFFFFFFFFFFFFFFFFFFFFFFFFFFFFFFFF AND PUSH20 0xFFFFFFFFFFFFFFFFFFFFFFFFFFFFFFFFFFFFFFFF AND DUP2 MSTORE PUSH1 0x20 ADD PUSH1 0x1 DUP3 ADD DUP1 SLOAD PUSH2 0x2E9 SWAP1 PUSH2 0x1992 JUMP JUMPDEST DUP1 PUSH1 0x1F ADD PUSH1 0x20 DUP1 SWAP2 DIV MUL PUSH1 0x20 ADD PUSH1 0x40 MLOAD SWAP1 DUP2 ADD PUSH1 0x40 MSTORE DUP1 SWAP3 SWAP2 SWAP1 DUP2 DUP2 MSTORE PUSH1 0x20 ADD DUP3 DUP1 SLOAD PUSH2 0x315 SWAP1 PUSH2 0x1992 JUMP JUMPDEST DUP1 ISZERO PUSH2 0x362 JUMPI DUP1 PUSH1 0x1F LT PUSH2 0x337 JUMPI PUSH2 0x100 DUP1 DUP4 SLOAD DIV MUL DUP4 MSTORE SWAP2 PUSH1 0x20 ADD SWAP2 PUSH2 0x362 JUMP JUMPDEST DUP3 ADD SWAP2 SWAP1 PUSH1 0x0 MSTORE PUSH1 0x20 PUSH1 0x0 KECCAK256 SWAP1 JUMPDEST DUP2 SLOAD DUP2 MSTORE SWAP1 PUSH1 0x1 ADD SWAP1 PUSH1 0x20 ADD DUP1 DUP4 GT PUSH2 0x345 JUMPI DUP3 SWAP1 SUB PUSH1 0x1F AND DUP3 ADD SWAP2 JUMPDEST POP POP POP POP POP DUP2 MSTORE PUSH1 0x20 ADD PUSH1 0x2 DUP3 ADD SLOAD DUP2 MSTORE PUSH1 0x20 ADD PUSH1 0x3 DUP3 ADD PUSH1 0x0 SWAP1 SLOAD SWAP1 PUSH2 0x100 EXP SWAP1 DIV PUSH1 0xFF AND ISZERO ISZERO ISZERO ISZERO DUP2 MSTORE POP POP SWAP1 POP DUP1 PUSH1 0x60 ADD MLOAD PUSH2 0x3D6 JUMPI PUSH1 0x40 MLOAD PUSH32 0x8C379A000000000000000000000000000000000000000000000000000000000 DUP2 MSTORE PUSH1 0x4 ADD PUSH2 0x3CD SWAP1 PUSH2 0x168D JUMP JUMPDEST PUSH1 0x40 MLOAD DUP1 SWAP2 SUB SWAP1 REVERT JUMPDEST PUSH1 0x0 DUP2 PUSH1 0x40 ADD MLOAD GT PUSH2 0x41D JUMPI PUSH1 0x40 MLOAD PUSH32 0x8C379A000000000000000000000000000000000000000000000000000000000 DUP2 MSTORE PUSH1 0x4 ADD PUSH2 0x414 SWAP1 PUSH2 0x170D JUMP JUMPDEST PUSH1 0x40 MLOAD DUP1 SWAP2 SUB SWAP1 REVERT JUMPDEST PUSH1 0x0 DUP5 SWAP1 POP DUP1 PUSH20 0xFFFFFFFFFFFFFFFFFFFFFFFFFFFFFFFFFFFFFFFF AND PUSH4 0xA9059CBB CALLER DUP9 PUSH1 0x40 MLOAD DUP4 PUSH4 0xFFFFFFFF AND PUSH1 0xE0 SHL DUP2 MSTORE PUSH1 0x4 ADD PUSH2 0x45D SWAP3 SWAP2 SWAP1 PUSH2 0x15E5 JUMP JUMPDEST PUSH1 0x20 PUSH1 0x40 MLOAD DUP1 DUP4 SUB DUP2 PUSH1 0x0 DUP8 DUP1 EXTCODESIZE ISZERO DUP1 ISZERO PUSH2 0x477 JUMPI PUSH1 0x0 DUP1 REVERT JUMPDEST POP GAS CALL ISZERO DUP1 ISZERO PUSH2 0x48B JUMPI RETURNDATASIZE PUSH1 0x0 DUP1 RETURNDATACOPY RETURNDATASIZE PUSH1 0x0 REVERT JUMPDEST POP POP POP POP PUSH1 0x40 MLOAD RETURNDATASIZE PUSH1 0x1F NOT PUSH1 0x1F DUP3 ADD AND DUP3 ADD DUP1 PUSH1 0x40 MSTORE POP DUP2 ADD SWAP1 PUSH2 0x4AF SWAP2 SWAP1 PUSH2 0x1195 JUMP JUMPDEST PUSH2 0x4EE JUMPI PUSH1 0x40 MLOAD PUSH32 0x8C379A000000000000000000000000000000000000000000000000000000000 DUP2 MSTORE PUSH1 0x4 ADD PUSH2 0x4E5 SWAP1 PUSH2 0x166D JUMP JUMPDEST PUSH1 0x40 MLOAD DUP1 SWAP2 SUB SWAP1 REVERT JUMPDEST DUP6 DUP3 PUSH1 0x40 ADD DUP2 DUP2 MLOAD PUSH2 0x500 SWAP2 SWAP1 PUSH2 0x18E3 JUMP JUMPDEST SWAP2 POP DUP2 DUP2 MSTORE POP POP PUSH1 0x1 SWAP4 POP POP POP POP SWAP3 SWAP2 POP POP JUMP JUMPDEST PUSH1 0x0 DUP1 DUP4 GT PUSH2 0x558 JUMPI PUSH1 0x40 MLOAD PUSH32 0x8C379A000000000000000000000000000000000000000000000000000000000 DUP2 MSTORE PUSH1 0x4 ADD PUSH2 0x54F SWAP1 PUSH2 0x176D JUMP JUMPDEST PUSH1 0x40 MLOAD DUP1 SWAP2 SUB SWAP1 REVERT JUMPDEST PUSH1 0x40 MLOAD PUSH1 0x20 ADD PUSH2 0x567 SWAP1 PUSH2 0x15D0 JUMP JUMPDEST PUSH1 0x40 MLOAD PUSH1 0x20 DUP2 DUP4 SUB SUB DUP2 MSTORE SWAP1 PUSH1 0x40 MSTORE DUP1 MLOAD SWAP1 PUSH1 0x20 ADD KECCAK256 DUP3 PUSH1 0x40 MLOAD PUSH1 0x20 ADD PUSH2 0x58E SWAP2 SWAP1 PUSH2 0x15B5 JUMP JUMPDEST PUSH1 0x40 MLOAD PUSH1 0x20 DUP2 DUP4 SUB SUB DUP2 MSTORE SWAP1 PUSH1 0x40 MSTORE DUP1 MLOAD SWAP1 PUSH1 0x20 ADD KECCAK256 EQ ISZERO PUSH2 0x5E5 JUMPI PUSH1 0x40 MLOAD PUSH32 0x8C379A000000000000000000000000000000000000000000000000000000000 DUP2 MSTORE PUSH1 0x4 ADD PUSH2 0x5DC SWAP1 PUSH2 0x174D JUMP JUMPDEST PUSH1 0x40 MLOAD DUP1 SWAP2 SUB SWAP1 REVERT JUMPDEST PUSH2 0x5EE DUP3 PUSH2 0xD58 JUMP JUMPDEST PUSH1 0x0 PUSH1 0x2 PUSH1 0x0 DUP5 PUSH20 0xFFFFFFFFFFFFFFFFFFFFFFFFFFFFFFFFFFFFFFFF AND PUSH20 0xFFFFFFFFFFFFFFFFFFFFFFFFFFFFFFFFFFFFFFFF AND DUP2 MSTORE PUSH1 0x20 ADD SWAP1 DUP2 MSTORE PUSH1 0x20 ADD PUSH1 0x0 KECCAK256 SLOAD SWAP1 POP PUSH1 0x0 DUP4 SWAP1 POP DUP1 PUSH20 0xFFFFFFFFFFFFFFFFFFFFFFFFFFFFFFFFFFFFFFFF AND PUSH4 0xA9059CBB ADDRESS DUP8 PUSH1 0x40 MLOAD DUP4 PUSH4 0xFFFFFFFF AND PUSH1 0xE0 SHL DUP2 MSTORE PUSH1 0x4 ADD PUSH2 0x672 SWAP3 SWAP2 SWAP1 PUSH2 0x15E5 JUMP JUMPDEST PUSH1 0x20 PUSH1 0x40 MLOAD DUP1 DUP4 SUB DUP2 PUSH1 0x0 DUP8 DUP1 EXTCODESIZE ISZERO DUP1 ISZERO PUSH2 0x68C JUMPI PUSH1 0x0 DUP1 REVERT JUMPDEST POP GAS CALL ISZERO DUP1 ISZERO PUSH2 0x6A0 JUMPI RETURNDATASIZE PUSH1 0x0 DUP1 RETURNDATACOPY RETURNDATASIZE PUSH1 0x0 REVERT JUMPDEST POP POP POP POP PUSH1 0x40 MLOAD RETURNDATASIZE PUSH1 0x1F NOT PUSH1 0x1F DUP3 ADD AND DUP3 ADD DUP1 PUSH1 0x40 MSTORE POP DUP2 ADD SWAP1 PUSH2 0x6C4 SWAP2 SWAP1 PUSH2 0x1195 JUMP JUMPDEST PUSH2 0x703 JUMPI PUSH1 0x40 MLOAD PUSH32 0x8C379A000000000000000000000000000000000000000000000000000000000 DUP2 MSTORE PUSH1 0x4 ADD PUSH2 0x6FA SWAP1 PUSH2 0x16AD JUMP JUMPDEST PUSH1 0x40 MLOAD DUP1 SWAP2 SUB SWAP1 REVERT JUMPDEST DUP5 PUSH1 0x3 PUSH1 0x0 CALLER PUSH20 0xFFFFFFFFFFFFFFFFFFFFFFFFFFFFFFFFFFFFFFFF AND PUSH20 0xFFFFFFFFFFFFFFFFFFFFFFFFFFFFFFFFFFFFFFFF AND DUP2 MSTORE PUSH1 0x20 ADD SWAP1 DUP2 MSTORE PUSH1 0x20 ADD PUSH1 0x0 KECCAK256 PUSH1 0x0 DUP5 DUP2 MSTORE PUSH1 0x20 ADD SWAP1 DUP2 MSTORE PUSH1 0x20 ADD PUSH1 0x0 KECCAK256 PUSH1 0x2 ADD PUSH1 0x0 DUP3 DUP3 SLOAD PUSH2 0x766 SWAP2 SWAP1 PUSH2 0x188D JUMP JUMPDEST SWAP3 POP POP DUP2 SWAP1 SSTORE POP PUSH1 0x1 SWAP3 POP POP POP SWAP3 SWAP2 POP POP JUMP JUMPDEST PUSH1 0x60 DUP2 PUSH20 0xFFFFFFFFFFFFFFFFFFFFFFFFFFFFFFFFFFFFFFFF AND CALLER PUSH20 0xFFFFFFFFFFFFFFFFFFFFFFFFFFFFFFFFFFFFFFFF AND EQ PUSH2 0x7E9 JUMPI PUSH1 0x40 MLOAD PUSH32 0x8C379A000000000000000000000000000000000000000000000000000000000 DUP2 MSTORE PUSH1 0x4 ADD PUSH2 0x7E0 SWAP1 PUSH2 0x172D JUMP JUMPDEST PUSH1 0x40 MLOAD DUP1 SWAP2 SUB SWAP1 REVERT JUMPDEST PUSH1 0x0 PUSH1 0x1 PUSH1 0x0 DUP5 PUSH20 0xFFFFFFFFFFFFFFFFFFFFFFFFFFFFFFFFFFFFFFFF AND PUSH20 0xFFFFFFFFFFFFFFFFFFFFFFFFFFFFFFFFFFFFFFFF AND DUP2 MSTORE PUSH1 0x20 ADD SWAP1 DUP2 MSTORE PUSH1 0x20 ADD PUSH1 0x0 KECCAK256 SLOAD SWAP1 POP PUSH1 0x0 DUP2 PUSH8 0xFFFFFFFFFFFFFFFF DUP2 GT ISZERO PUSH2 0x849 JUMPI PUSH2 0x848 PUSH2 0x1AEF JUMP JUMPDEST JUMPDEST PUSH1 0x40 MLOAD SWAP1 DUP1 DUP3 MSTORE DUP1 PUSH1 0x20 MUL PUSH1 0x20 ADD DUP3 ADD PUSH1 0x40 MSTORE DUP1 ISZERO PUSH2 0x882 JUMPI DUP2 PUSH1 0x20 ADD JUMPDEST PUSH2 0x86F PUSH2 0xFD6 JUMP JUMPDEST DUP2 MSTORE PUSH1 0x20 ADD SWAP1 PUSH1 0x1 SWAP1 SUB SWAP1 DUP2 PUSH2 0x867 JUMPI SWAP1 POP JUMPDEST POP SWAP1 POP PUSH1 0x0 JUMPDEST PUSH1 0x1 DUP4 PUSH2 0x895 SWAP2 SWAP1 PUSH2 0x18E3 JUMP JUMPDEST DUP2 LT ISZERO PUSH2 0xA35 JUMPI PUSH1 0x3 PUSH1 0x0 DUP7 PUSH20 0xFFFFFFFFFFFFFFFFFFFFFFFFFFFFFFFFFFFFFFFF AND PUSH20 0xFFFFFFFFFFFFFFFFFFFFFFFFFFFFFFFFFFFFFFFF AND DUP2 MSTORE PUSH1 0x20 ADD SWAP1 DUP2 MSTORE PUSH1 0x20 ADD PUSH1 0x0 KECCAK256 PUSH1 0x0 DUP3 DUP2 MSTORE PUSH1 0x20 ADD SWAP1 DUP2 MSTORE PUSH1 0x20 ADD PUSH1 0x0 KECCAK256 PUSH1 0x40 MLOAD DUP1 PUSH1 0x80 ADD PUSH1 0x40 MSTORE SWAP1 DUP2 PUSH1 0x0 DUP3 ADD PUSH1 0x0 SWAP1 SLOAD SWAP1 PUSH2 0x100 EXP SWAP1 DIV PUSH20 0xFFFFFFFFFFFFFFFFFFFFFFFFFFFFFFFFFFFFFFFF AND PUSH20 0xFFFFFFFFFFFFFFFFFFFFFFFFFFFFFFFFFFFFFFFF AND PUSH20 0xFFFFFFFFFFFFFFFFFFFFFFFFFFFFFFFFFFFFFFFF AND DUP2 MSTORE PUSH1 0x20 ADD PUSH1 0x1 DUP3 ADD DUP1 SLOAD PUSH2 0x95D SWAP1 PUSH2 0x1992 JUMP JUMPDEST DUP1 PUSH1 0x1F ADD PUSH1 0x20 DUP1 SWAP2 DIV MUL PUSH1 0x20 ADD PUSH1 0x40 MLOAD SWAP1 DUP2 ADD PUSH1 0x40 MSTORE DUP1 SWAP3 SWAP2 SWAP1 DUP2 DUP2 MSTORE PUSH1 0x20 ADD DUP3 DUP1 SLOAD PUSH2 0x989 SWAP1 PUSH2 0x1992 JUMP JUMPDEST DUP1 ISZERO PUSH2 0x9D6 JUMPI DUP1 PUSH1 0x1F LT PUSH2 0x9AB JUMPI PUSH2 0x100 DUP1 DUP4 SLOAD DIV MUL DUP4 MSTORE SWAP2 PUSH1 0x20 ADD SWAP2 PUSH2 0x9D6 JUMP JUMPDEST DUP3 ADD SWAP2 SWAP1 PUSH1 0x0 MSTORE PUSH1 0x20 PUSH1 0x0 KECCAK256 SWAP1 JUMPDEST DUP2 SLOAD DUP2 MSTORE SWAP1 PUSH1 0x1 ADD SWAP1 PUSH1 0x20 ADD DUP1 DUP4 GT PUSH2 0x9B9 JUMPI DUP3 SWAP1 SUB PUSH1 0x1F AND DUP3 ADD SWAP2 JUMPDEST POP POP POP POP POP DUP2 MSTORE PUSH1 0x20 ADD PUSH1 0x2 DUP3 ADD SLOAD DUP2 MSTORE PUSH1 0x20 ADD PUSH1 0x3 DUP3 ADD PUSH1 0x0 SWAP1 SLOAD SWAP1 PUSH2 0x100 EXP SWAP1 DIV PUSH1 0xFF AND ISZERO ISZERO ISZERO ISZERO DUP2 MSTORE POP POP DUP3 DUP3 DUP2 MLOAD DUP2 LT PUSH2 0xA17 JUMPI PUSH2 0xA16 PUSH2 0x1AC0 JUMP JUMPDEST JUMPDEST PUSH1 0x20 MUL PUSH1 0x20 ADD ADD DUP2 SWAP1 MSTORE POP DUP1 DUP1 PUSH2 0xA2D SWAP1 PUSH2 0x19F5 JUMP JUMPDEST SWAP2 POP POP PUSH2 0x888 JUMP JUMPDEST POP DUP1 SWAP3 POP POP POP SWAP2 SWAP1 POP JUMP JUMPDEST PUSH1 0x60 DUP2 PUSH20 0xFFFFFFFFFFFFFFFFFFFFFFFFFFFFFFFFFFFFFFFF AND CALLER PUSH20 0xFFFFFFFFFFFFFFFFFFFFFFFFFFFFFFFFFFFFFFFF AND EQ PUSH2 0xAB0 JUMPI PUSH1 0x40 MLOAD PUSH32 0x8C379A000000000000000000000000000000000000000000000000000000000 DUP2 MSTORE PUSH1 0x4 ADD PUSH2 0xAA7 SWAP1 PUSH2 0x16ED JUMP JUMPDEST PUSH1 0x40 MLOAD DUP1 SWAP2 SUB SWAP1 REVERT JUMPDEST PUSH1 0x0 PUSH1 0x1 PUSH1 0x0 DUP5 PUSH20 0xFFFFFFFFFFFFFFFFFFFFFFFFFFFFFFFFFFFFFFFF AND PUSH20 0xFFFFFFFFFFFFFFFFFFFFFFFFFFFFFFFFFFFFFFFF AND DUP2 MSTORE PUSH1 0x20 ADD SWAP1 DUP2 MSTORE PUSH1 0x20 ADD PUSH1 0x0 KECCAK256 SLOAD SWAP1 POP PUSH1 0x60 PUSH1 0x0 JUMPDEST PUSH1 0x1 DUP4 PUSH2 0xB06 SWAP2 SWAP1 PUSH2 0x18E3 JUMP JUMPDEST DUP2 LT ISZERO PUSH2 0xD4D JUMPI PUSH1 0x0 PUSH1 0x3 PUSH1 0x0 DUP8 PUSH20 0xFFFFFFFFFFFFFFFFFFFFFFFFFFFFFFFFFFFFFFFF AND PUSH20 0xFFFFFFFFFFFFFFFFFFFFFFFFFFFFFFFFFFFFFFFF AND DUP2 MSTORE PUSH1 0x20 ADD SWAP1 DUP2 MSTORE PUSH1 0x20 ADD PUSH1 0x0 KECCAK256 PUSH1 0x0 DUP4 DUP2 MSTORE PUSH1 0x20 ADD SWAP1 DUP2 MSTORE PUSH1 0x20 ADD PUSH1 0x0 KECCAK256 PUSH1 0x40 MLOAD DUP1 PUSH1 0x80 ADD PUSH1 0x40 MSTORE SWAP1 DUP2 PUSH1 0x0 DUP3 ADD PUSH1 0x0 SWAP1 SLOAD SWAP1 PUSH2 0x100 EXP SWAP1 DIV PUSH20 0xFFFFFFFFFFFFFFFFFFFFFFFFFFFFFFFFFFFFFFFF AND PUSH20 0xFFFFFFFFFFFFFFFFFFFFFFFFFFFFFFFFFFFFFFFF AND PUSH20 0xFFFFFFFFFFFFFFFFFFFFFFFFFFFFFFFFFFFFFFFF AND DUP2 MSTORE PUSH1 0x20 ADD PUSH1 0x1 DUP3 ADD DUP1 SLOAD PUSH2 0xBD0 SWAP1 PUSH2 0x1992 JUMP JUMPDEST DUP1 PUSH1 0x1F ADD PUSH1 0x20 DUP1 SWAP2 DIV MUL PUSH1 0x20 ADD PUSH1 0x40 MLOAD SWAP1 DUP2 ADD PUSH1 0x40 MSTORE DUP1 SWAP3 SWAP2 SWAP1 DUP2 DUP2 MSTORE PUSH1 0x20 ADD DUP3 DUP1 SLOAD PUSH2 0xBFC SWAP1 PUSH2 0x1992 JUMP JUMPDEST DUP1 ISZERO PUSH2 0xC49 JUMPI DUP1 PUSH1 0x1F LT PUSH2 0xC1E JUMPI PUSH2 0x100 DUP1 DUP4 SLOAD DIV MUL DUP4 MSTORE SWAP2 PUSH1 0x20 ADD SWAP2 PUSH2 0xC49 JUMP JUMPDEST DUP3 ADD SWAP2 SWAP1 PUSH1 0x0 MSTORE PUSH1 0x20 PUSH1 0x0 KECCAK256 SWAP1 JUMPDEST DUP2 SLOAD DUP2 MSTORE SWAP1 PUSH1 0x1 ADD SWAP1 PUSH1 0x20 ADD DUP1 DUP4 GT PUSH2 0xC2C JUMPI DUP3 SWAP1 SUB PUSH1 0x1F AND DUP3 ADD SWAP2 JUMPDEST POP POP POP POP POP DUP2 MSTORE PUSH1 0x20 ADD PUSH1 0x2 DUP3 ADD SLOAD DUP2 MSTORE PUSH1 0x20 ADD PUSH1 0x3 DUP3 ADD PUSH1 0x0 SWAP1 SLOAD SWAP1 PUSH2 0x100 EXP SWAP1 DIV PUSH1 0xFF AND ISZERO ISZERO ISZERO ISZERO DUP2 MSTORE POP POP SWAP1 POP PUSH1 0x0 DUP2 PUSH1 0x0 ADD MLOAD SWAP1 POP DUP1 PUSH20 0xFFFFFFFFFFFFFFFFFFFFFFFFFFFFFFFFFFFFFFFF AND PUSH4 0xA9059CBB DUP9 DUP5 PUSH1 0x40 ADD MLOAD PUSH1 0x40 MLOAD DUP4 PUSH4 0xFFFFFFFF AND PUSH1 0xE0 SHL DUP2 MSTORE PUSH1 0x4 ADD PUSH2 0xCC1 SWAP3 SWAP2 SWAP1 PUSH2 0x15E5 JUMP JUMPDEST PUSH1 0x20 PUSH1 0x40 MLOAD DUP1 DUP4 SUB DUP2 PUSH1 0x0 DUP8 DUP1 EXTCODESIZE ISZERO DUP1 ISZERO PUSH2 0xCDB JUMPI PUSH1 0x0 DUP1 REVERT JUMPDEST POP GAS CALL ISZERO DUP1 ISZERO PUSH2 0xCEF JUMPI RETURNDATASIZE PUSH1 0x0 DUP1 RETURNDATACOPY RETURNDATASIZE PUSH1 0x0 REVERT JUMPDEST POP POP POP POP PUSH1 0x40 MLOAD RETURNDATASIZE PUSH1 0x1F NOT PUSH1 0x1F DUP3 ADD AND DUP3 ADD DUP1 PUSH1 0x40 MSTORE POP DUP2 ADD SWAP1 PUSH2 0xD13 SWAP2 SWAP1 PUSH2 0x1195 JUMP JUMPDEST DUP5 DUP5 DUP2 MLOAD DUP2 LT PUSH2 0xD26 JUMPI PUSH2 0xD25 PUSH2 0x1AC0 JUMP JUMPDEST JUMPDEST PUSH1 0x20 MUL PUSH1 0x20 ADD ADD SWAP1 ISZERO ISZERO SWAP1 DUP2 ISZERO ISZERO DUP2 MSTORE POP POP POP POP DUP1 DUP1 PUSH2 0xD45 SWAP1 PUSH2 0x19F5 JUMP JUMPDEST SWAP2 POP POP PUSH2 0xAF9 JUMP JUMPDEST POP DUP1 SWAP3 POP POP POP SWAP2 SWAP1 POP JUMP JUMPDEST PUSH1 0x0 DUP2 PUSH20 0xFFFFFFFFFFFFFFFFFFFFFFFFFFFFFFFFFFFFFFFF AND PUSH4 0x95D89B41 PUSH1 0x40 MLOAD DUP2 PUSH4 0xFFFFFFFF AND PUSH1 0xE0 SHL DUP2 MSTORE PUSH1 0x4 ADD PUSH1 0x0 PUSH1 0x40 MLOAD DUP1 DUP4 SUB DUP2 DUP7 DUP1 EXTCODESIZE ISZERO DUP1 ISZERO PUSH2 0xDA0 JUMPI PUSH1 0x0 DUP1 REVERT JUMPDEST POP GAS STATICCALL ISZERO DUP1 ISZERO PUSH2 0xDB4 JUMPI RETURNDATASIZE PUSH1 0x0 DUP1 RETURNDATACOPY RETURNDATASIZE PUSH1 0x0 REVERT JUMPDEST POP POP POP POP PUSH1 0x40 MLOAD RETURNDATASIZE PUSH1 0x0 DUP3 RETURNDATACOPY RETURNDATASIZE PUSH1 0x1F NOT PUSH1 0x1F DUP3 ADD AND DUP3 ADD DUP1 PUSH1 0x40 MSTORE POP DUP2 ADD SWAP1 PUSH2 0xDDD SWAP2 SWAP1 PUSH2 0x11C2 JUMP JUMPDEST SWAP1 POP PUSH1 0x0 PUSH2 0xDEB PUSH1 0x0 PUSH2 0xFB2 JUMP JUMPDEST SWAP1 POP PUSH2 0xDF7 PUSH1 0x0 PUSH2 0xFC0 JUMP JUMPDEST PUSH1 0x40 MLOAD DUP1 PUSH1 0x80 ADD PUSH1 0x40 MSTORE DUP1 DUP5 PUSH20 0xFFFFFFFFFFFFFFFFFFFFFFFFFFFFFFFFFFFFFFFF AND DUP2 MSTORE PUSH1 0x20 ADD DUP4 DUP2 MSTORE PUSH1 0x20 ADD PUSH1 0x0 DUP2 MSTORE PUSH1 0x20 ADD PUSH1 0x1 ISZERO ISZERO DUP2 MSTORE POP PUSH1 0x3 PUSH1 0x0 CALLER PUSH20 0xFFFFFFFFFFFFFFFFFFFFFFFFFFFFFFFFFFFFFFFF AND PUSH20 0xFFFFFFFFFFFFFFFFFFFFFFFFFFFFFFFFFFFFFFFF AND DUP2 MSTORE PUSH1 0x20 ADD SWAP1 DUP2 MSTORE PUSH1 0x20 ADD PUSH1 0x0 KECCAK256 PUSH1 0x0 DUP4 DUP2 MSTORE PUSH1 0x20 ADD SWAP1 DUP2 MSTORE PUSH1 0x20 ADD PUSH1 0x0 KECCAK256 PUSH1 0x0 DUP3 ADD MLOAD DUP2 PUSH1 0x0 ADD PUSH1 0x0 PUSH2 0x100 EXP DUP2 SLOAD DUP2 PUSH20 0xFFFFFFFFFFFFFFFFFFFFFFFFFFFFFFFFFFFFFFFF MUL NOT AND SWAP1 DUP4 PUSH20 0xFFFFFFFFFFFFFFFFFFFFFFFFFFFFFFFFFFFFFFFF AND MUL OR SWAP1 SSTORE POP PUSH1 0x20 DUP3 ADD MLOAD DUP2 PUSH1 0x1 ADD SWAP1 DUP1 MLOAD SWAP1 PUSH1 0x20 ADD SWAP1 PUSH2 0xEE5 SWAP3 SWAP2 SWAP1 PUSH2 0x1016 JUMP JUMPDEST POP PUSH1 0x40 DUP3 ADD MLOAD DUP2 PUSH1 0x2 ADD SSTORE PUSH1 0x60 DUP3 ADD MLOAD DUP2 PUSH1 0x3 ADD PUSH1 0x0 PUSH2 0x100 EXP DUP2 SLOAD DUP2 PUSH1 0xFF MUL NOT AND SWAP1 DUP4 ISZERO ISZERO MUL OR SWAP1 SSTORE POP SWAP1 POP POP DUP1 PUSH1 0x2 PUSH1 0x0 DUP6 PUSH20 0xFFFFFFFFFFFFFFFFFFFFFFFFFFFFFFFFFFFFFFFF AND PUSH20 0xFFFFFFFFFFFFFFFFFFFFFFFFFFFFFFFFFFFFFFFF AND DUP2 MSTORE PUSH1 0x20 ADD SWAP1 DUP2 MSTORE PUSH1 0x20 ADD PUSH1 0x0 KECCAK256 DUP2 SWAP1 SSTORE POP PUSH1 0x1 DUP1 PUSH1 0x0 CALLER PUSH20 0xFFFFFFFFFFFFFFFFFFFFFFFFFFFFFFFFFFFFFFFF AND PUSH20 0xFFFFFFFFFFFFFFFFFFFFFFFFFFFFFFFFFFFFFFFF AND DUP2 MSTORE PUSH1 0x20 ADD SWAP1 DUP2 MSTORE PUSH1 0x20 ADD PUSH1 0x0 KECCAK256 PUSH1 0x0 DUP3 DUP3 SLOAD PUSH2 0xFA6 SWAP2 SWAP1 PUSH2 0x188D JUMP JUMPDEST SWAP3 POP POP DUP2 SWAP1 SSTORE POP POP POP POP JUMP JUMPDEST PUSH1 0x0 DUP2 PUSH1 0x0 ADD SLOAD SWAP1 POP SWAP2 SWAP1 POP JUMP JUMPDEST PUSH1 0x1 DUP2 PUSH1 0x0 ADD PUSH1 0x0 DUP3 DUP3 SLOAD ADD SWAP3 POP POP DUP2 SWAP1 SSTORE POP POP JUMP JUMPDEST PUSH1 0x40 MLOAD DUP1 PUSH1 0x80 ADD PUSH1 0x40 MSTORE DUP1 PUSH1 0x0 PUSH20 0xFFFFFFFFFFFFFFFFFFFFFFFFFFFFFFFFFFFFFFFF AND DUP2 MSTORE PUSH1 0x20 ADD PUSH1 0x60 DUP2 MSTORE PUSH1 0x20 ADD PUSH1 0x0 DUP2 MSTORE PUSH1 0x20 ADD PUSH1 0x0 ISZERO ISZERO DUP2 MSTORE POP SWAP1 JUMP JUMPDEST DUP3 DUP1 SLOAD PUSH2 0x1022 SWAP1 PUSH2 0x1992 JUMP JUMPDEST SWAP1 PUSH1 0x0 MSTORE PUSH1 0x20 PUSH1 0x0 KECCAK256 SWAP1 PUSH1 0x1F ADD PUSH1 0x20 SWAP1 DIV DUP2 ADD SWAP3 DUP3 PUSH2 0x1044 JUMPI PUSH1 0x0 DUP6 SSTORE PUSH2 0x108B JUMP JUMPDEST DUP3 PUSH1 0x1F LT PUSH2 0x105D JUMPI DUP1 MLOAD PUSH1 0xFF NOT AND DUP4 DUP1 ADD OR DUP6 SSTORE PUSH2 0x108B JUMP JUMPDEST DUP3 DUP1 ADD PUSH1 0x1 ADD DUP6 SSTORE DUP3 ISZERO PUSH2 0x108B JUMPI SWAP2 DUP3 ADD JUMPDEST DUP3 DUP2 GT ISZERO PUSH2 0x108A JUMPI DUP3 MLOAD DUP3 SSTORE SWAP2 PUSH1 0x20 ADD SWAP2 SWAP1 PUSH1 0x1 ADD SWAP1 PUSH2 0x106F JUMP JUMPDEST JUMPDEST POP SWAP1 POP PUSH2 0x1098 SWAP2 SWAP1 PUSH2 0x109C JUMP JUMPDEST POP SWAP1 JUMP JUMPDEST JUMPDEST DUP1 DUP3 GT ISZERO PUSH2 0x10B5 JUMPI PUSH1 0x0 DUP2 PUSH1 0x0 SWAP1 SSTORE POP PUSH1 0x1 ADD PUSH2 0x109D JUMP JUMPDEST POP SWAP1 JUMP JUMPDEST PUSH1 0x0 PUSH2 0x10CC PUSH2 0x10C7 DUP5 PUSH2 0x17B2 JUMP JUMPDEST PUSH2 0x178D JUMP JUMPDEST SWAP1 POP DUP3 DUP2 MSTORE PUSH1 0x20 DUP2 ADD DUP5 DUP5 DUP5 ADD GT ISZERO PUSH2 0x10E8 JUMPI PUSH2 0x10E7 PUSH2 0x1B23 JUMP JUMPDEST JUMPDEST PUSH2 0x10F3 DUP5 DUP3 DUP6 PUSH2 0x195F JUMP JUMPDEST POP SWAP4 SWAP3 POP POP POP JUMP JUMPDEST PUSH1 0x0 DUP2 CALLDATALOAD SWAP1 POP PUSH2 0x110A DUP2 PUSH2 0x1D5C JUMP JUMPDEST SWAP3 SWAP2 POP POP JUMP JUMPDEST PUSH1 0x0 DUP2 MLOAD SWAP1 POP PUSH2 0x111F DUP2 PUSH2 0x1D73 JUMP JUMPDEST SWAP3 SWAP2 POP POP JUMP JUMPDEST PUSH1 0x0 DUP3 PUSH1 0x1F DUP4 ADD SLT PUSH2 0x113A JUMPI PUSH2 0x1139 PUSH2 0x1B1E JUMP JUMPDEST JUMPDEST DUP2 MLOAD PUSH2 0x114A DUP5 DUP3 PUSH1 0x20 DUP7 ADD PUSH2 0x10B9 JUMP JUMPDEST SWAP2 POP POP SWAP3 SWAP2 POP POP JUMP JUMPDEST PUSH1 0x0 DUP2 CALLDATALOAD SWAP1 POP PUSH2 0x1162 DUP2 PUSH2 0x1D8A JUMP JUMPDEST SWAP3 SWAP2 POP POP JUMP JUMPDEST PUSH1 0x0 PUSH1 0x20 DUP3 DUP5 SUB SLT ISZERO PUSH2 0x117E JUMPI PUSH2 0x117D PUSH2 0x1B2D JUMP JUMPDEST JUMPDEST PUSH1 0x0 PUSH2 0x118C DUP5 DUP3 DUP6 ADD PUSH2 0x10FB JUMP JUMPDEST SWAP2 POP POP SWAP3 SWAP2 POP POP JUMP JUMPDEST PUSH1 0x0 PUSH1 0x20 DUP3 DUP5 SUB SLT ISZERO PUSH2 0x11AB JUMPI PUSH2 0x11AA PUSH2 0x1B2D JUMP JUMPDEST JUMPDEST PUSH1 0x0 PUSH2 0x11B9 DUP5 DUP3 DUP6 ADD PUSH2 0x1110 JUMP JUMPDEST SWAP2 POP POP SWAP3 SWAP2 POP POP JUMP JUMPDEST PUSH1 0x0 PUSH1 0x20 DUP3 DUP5 SUB SLT ISZERO PUSH2 0x11D8 JUMPI PUSH2 0x11D7 PUSH2 0x1B2D JUMP JUMPDEST JUMPDEST PUSH1 0x0 DUP3 ADD MLOAD PUSH8 0xFFFFFFFFFFFFFFFF DUP2 GT ISZERO PUSH2 0x11F6 JUMPI PUSH2 0x11F5 PUSH2 0x1B28 JUMP JUMPDEST JUMPDEST PUSH2 0x1202 DUP5 DUP3 DUP6 ADD PUSH2 0x1125 JUMP JUMPDEST SWAP2 POP POP SWAP3 SWAP2 POP POP JUMP JUMPDEST PUSH1 0x0 DUP1 PUSH1 0x40 DUP4 DUP6 SUB SLT ISZERO PUSH2 0x1222 JUMPI PUSH2 0x1221 PUSH2 0x1B2D JUMP JUMPDEST JUMPDEST PUSH1 0x0 PUSH2 0x1230 DUP6 DUP3 DUP7 ADD PUSH2 0x1153 JUMP JUMPDEST SWAP3 POP POP PUSH1 0x20 PUSH2 0x1241 DUP6 DUP3 DUP7 ADD PUSH2 0x10FB JUMP JUMPDEST SWAP2 POP POP SWAP3 POP SWAP3 SWAP1 POP JUMP JUMPDEST PUSH1 0x0 PUSH2 0x1257 DUP4 DUP4 PUSH2 0x137F JUMP JUMPDEST PUSH1 0x20 DUP4 ADD SWAP1 POP SWAP3 SWAP2 POP POP JUMP JUMPDEST PUSH1 0x0 PUSH2 0x126F DUP4 DUP4 PUSH2 0x1534 JUMP JUMPDEST SWAP1 POP SWAP3 SWAP2 POP POP JUMP JUMPDEST PUSH2 0x1280 DUP2 PUSH2 0x1917 JUMP JUMPDEST DUP3 MSTORE POP POP JUMP JUMPDEST PUSH2 0x128F DUP2 PUSH2 0x1917 JUMP JUMPDEST DUP3 MSTORE POP POP JUMP JUMPDEST PUSH2 0x12A6 PUSH2 0x12A1 DUP3 PUSH2 0x1917 JUMP JUMPDEST PUSH2 0x1A3E JUMP JUMPDEST DUP3 MSTORE POP POP JUMP JUMPDEST PUSH1 0x0 PUSH2 0x12B7 DUP3 PUSH2 0x1803 JUMP JUMPDEST PUSH2 0x12C1 DUP2 DUP6 PUSH2 0x183E JUMP JUMPDEST SWAP4 POP PUSH2 0x12CC DUP4 PUSH2 0x17E3 JUMP JUMPDEST DUP1 PUSH1 0x0 JUMPDEST DUP4 DUP2 LT ISZERO PUSH2 0x12FD JUMPI DUP2 MLOAD PUSH2 0x12E4 DUP9 DUP3 PUSH2 0x124B JUMP JUMPDEST SWAP8 POP PUSH2 0x12EF DUP4 PUSH2 0x1824 JUMP JUMPDEST SWAP3 POP POP PUSH1 0x1 DUP2 ADD SWAP1 POP PUSH2 0x12D0 JUMP JUMPDEST POP DUP6 SWAP4 POP POP POP POP SWAP3 SWAP2 POP POP JUMP JUMPDEST PUSH1 0x0 PUSH2 0x1315 DUP3 PUSH2 0x180E JUMP JUMPDEST PUSH2 0x131F DUP2 DUP6 PUSH2 0x184F JUMP JUMPDEST SWAP4 POP DUP4 PUSH1 0x20 DUP3 MUL DUP6 ADD PUSH2 0x1331 DUP6 PUSH2 0x17F3 JUMP JUMPDEST DUP1 PUSH1 0x0 JUMPDEST DUP6 DUP2 LT ISZERO PUSH2 0x136D JUMPI DUP5 DUP5 SUB DUP10 MSTORE DUP2 MLOAD PUSH2 0x134E DUP6 DUP3 PUSH2 0x1263 JUMP JUMPDEST SWAP5 POP PUSH2 0x1359 DUP4 PUSH2 0x1831 JUMP JUMPDEST SWAP3 POP PUSH1 0x20 DUP11 ADD SWAP10 POP POP PUSH1 0x1 DUP2 ADD SWAP1 POP PUSH2 0x1335 JUMP JUMPDEST POP DUP3 SWAP8 POP DUP8 SWAP6 POP POP POP POP POP POP SWAP3 SWAP2 POP POP JUMP JUMPDEST PUSH2 0x1388 DUP2 PUSH2 0x1929 JUMP JUMPDEST DUP3 MSTORE POP POP JUMP JUMPDEST PUSH2 0x1397 DUP2 PUSH2 0x1929 JUMP JUMPDEST DUP3 MSTORE POP POP JUMP JUMPDEST PUSH1 0x0 PUSH2 0x13A8 DUP3 PUSH2 0x1819 JUMP JUMPDEST PUSH2 0x13B2 DUP2 DUP6 PUSH2 0x1860 JUMP JUMPDEST SWAP4 POP PUSH2 0x13C2 DUP2 DUP6 PUSH1 0x20 DUP7 ADD PUSH2 0x195F JUMP JUMPDEST PUSH2 0x13CB DUP2 PUSH2 0x1B32 JUMP JUMPDEST DUP5 ADD SWAP2 POP POP SWAP3 SWAP2 POP POP JUMP JUMPDEST PUSH1 0x0 PUSH2 0x13E3 PUSH1 0x22 DUP4 PUSH2 0x1871 JUMP JUMPDEST SWAP2 POP PUSH2 0x13EE DUP3 PUSH2 0x1B50 JUMP JUMPDEST PUSH1 0x40 DUP3 ADD SWAP1 POP SWAP2 SWAP1 POP JUMP JUMPDEST PUSH1 0x0 PUSH2 0x1406 PUSH1 0x17 DUP4 PUSH2 0x1871 JUMP JUMPDEST SWAP2 POP PUSH2 0x1411 DUP3 PUSH2 0x1B9F JUMP JUMPDEST PUSH1 0x20 DUP3 ADD SWAP1 POP SWAP2 SWAP1 POP JUMP JUMPDEST PUSH1 0x0 PUSH2 0x1429 PUSH1 0x21 DUP4 PUSH2 0x1871 JUMP JUMPDEST SWAP2 POP PUSH2 0x1434 DUP3 PUSH2 0x1BC8 JUMP JUMPDEST PUSH1 0x40 DUP3 ADD SWAP1 POP SWAP2 SWAP1 POP JUMP JUMPDEST PUSH1 0x0 PUSH2 0x144C PUSH1 0x1C DUP4 PUSH2 0x1871 JUMP JUMPDEST SWAP2 POP PUSH2 0x1457 DUP3 PUSH2 0x1C17 JUMP JUMPDEST PUSH1 0x20 DUP3 ADD SWAP1 POP SWAP2 SWAP1 POP JUMP JUMPDEST PUSH1 0x0 PUSH2 0x146F PUSH1 0x27 DUP4 PUSH2 0x1871 JUMP JUMPDEST SWAP2 POP PUSH2 0x147A DUP3 PUSH2 0x1C40 JUMP JUMPDEST PUSH1 0x40 DUP3 ADD SWAP1 POP SWAP2 SWAP1 POP JUMP JUMPDEST PUSH1 0x0 PUSH2 0x1492 PUSH1 0x16 DUP4 PUSH2 0x1871 JUMP JUMPDEST SWAP2 POP PUSH2 0x149D DUP3 PUSH2 0x1C8F JUMP JUMPDEST PUSH1 0x20 DUP3 ADD SWAP1 POP SWAP2 SWAP1 POP JUMP JUMPDEST PUSH1 0x0 PUSH2 0x14B5 PUSH1 0x2C DUP4 PUSH2 0x1871 JUMP JUMPDEST SWAP2 POP PUSH2 0x14C0 DUP3 PUSH2 0x1CB8 JUMP JUMPDEST PUSH1 0x40 DUP3 ADD SWAP1 POP SWAP2 SWAP1 POP JUMP JUMPDEST PUSH1 0x0 PUSH2 0x14D8 PUSH1 0x17 DUP4 PUSH2 0x1871 JUMP JUMPDEST SWAP2 POP PUSH2 0x14E3 DUP3 PUSH2 0x1D07 JUMP JUMPDEST PUSH1 0x20 DUP3 ADD SWAP1 POP SWAP2 SWAP1 POP JUMP JUMPDEST PUSH1 0x0 PUSH2 0x14FB PUSH1 0x0 DUP4 PUSH2 0x1882 JUMP JUMPDEST SWAP2 POP PUSH2 0x1506 DUP3 PUSH2 0x1D30 JUMP JUMPDEST PUSH1 0x0 DUP3 ADD SWAP1 POP SWAP2 SWAP1 POP JUMP JUMPDEST PUSH1 0x0 PUSH2 0x151E PUSH1 0x1B DUP4 PUSH2 0x1871 JUMP JUMPDEST SWAP2 POP PUSH2 0x1529 DUP3 PUSH2 0x1D33 JUMP JUMPDEST PUSH1 0x20 DUP3 ADD SWAP1 POP SWAP2 SWAP1 POP JUMP JUMPDEST PUSH1 0x0 PUSH1 0x80 DUP4 ADD PUSH1 0x0 DUP4 ADD MLOAD PUSH2 0x154C PUSH1 0x0 DUP7 ADD DUP3 PUSH2 0x1277 JUMP JUMPDEST POP PUSH1 0x20 DUP4 ADD MLOAD DUP5 DUP3 SUB PUSH1 0x20 DUP7 ADD MSTORE PUSH2 0x1564 DUP3 DUP3 PUSH2 0x139D JUMP JUMPDEST SWAP2 POP POP PUSH1 0x40 DUP4 ADD MLOAD PUSH2 0x1579 PUSH1 0x40 DUP7 ADD DUP3 PUSH2 0x1597 JUMP JUMPDEST POP PUSH1 0x60 DUP4 ADD MLOAD PUSH2 0x158C PUSH1 0x60 DUP7 ADD DUP3 PUSH2 0x137F JUMP JUMPDEST POP DUP1 SWAP2 POP POP SWAP3 SWAP2 POP POP JUMP JUMPDEST PUSH2 0x15A0 DUP2 PUSH2 0x1955 JUMP JUMPDEST DUP3 MSTORE POP POP JUMP JUMPDEST PUSH2 0x15AF DUP2 PUSH2 0x1955 JUMP JUMPDEST DUP3 MSTORE POP POP JUMP JUMPDEST PUSH1 0x0 PUSH2 0x15C1 DUP3 DUP5 PUSH2 0x1295 JUMP JUMPDEST PUSH1 0x14 DUP3 ADD SWAP2 POP DUP2 SWAP1 POP SWAP3 SWAP2 POP POP JUMP JUMPDEST PUSH1 0x0 PUSH2 0x15DB DUP3 PUSH2 0x14EE JUMP JUMPDEST SWAP2 POP DUP2 SWAP1 POP SWAP2 SWAP1 POP JUMP JUMPDEST PUSH1 0x0 PUSH1 0x40 DUP3 ADD SWAP1 POP PUSH2 0x15FA PUSH1 0x0 DUP4 ADD DUP6 PUSH2 0x1286 JUMP JUMPDEST PUSH2 0x1607 PUSH1 0x20 DUP4 ADD DUP5 PUSH2 0x15A6 JUMP JUMPDEST SWAP4 SWAP3 POP POP POP JUMP JUMPDEST PUSH1 0x0 PUSH1 0x20 DUP3 ADD SWAP1 POP DUP2 DUP2 SUB PUSH1 0x0 DUP4 ADD MSTORE PUSH2 0x1628 DUP2 DUP5 PUSH2 0x12AC JUMP JUMPDEST SWAP1 POP SWAP3 SWAP2 POP POP JUMP JUMPDEST PUSH1 0x0 PUSH1 0x20 DUP3 ADD SWAP1 POP DUP2 DUP2 SUB PUSH1 0x0 DUP4 ADD MSTORE PUSH2 0x164A DUP2 DUP5 PUSH2 0x130A JUMP JUMPDEST SWAP1 POP SWAP3 SWAP2 POP POP JUMP JUMPDEST PUSH1 0x0 PUSH1 0x20 DUP3 ADD SWAP1 POP PUSH2 0x1667 PUSH1 0x0 DUP4 ADD DUP5 PUSH2 0x138E JUMP JUMPDEST SWAP3 SWAP2 POP POP JUMP JUMPDEST PUSH1 0x0 PUSH1 0x20 DUP3 ADD SWAP1 POP DUP2 DUP2 SUB PUSH1 0x0 DUP4 ADD MSTORE PUSH2 0x1686 DUP2 PUSH2 0x13D6 JUMP JUMPDEST SWAP1 POP SWAP2 SWAP1 POP JUMP JUMPDEST PUSH1 0x0 PUSH1 0x20 DUP3 ADD SWAP1 POP DUP2 DUP2 SUB PUSH1 0x0 DUP4 ADD MSTORE PUSH2 0x16A6 DUP2 PUSH2 0x13F9 JUMP JUMPDEST SWAP1 POP SWAP2 SWAP1 POP JUMP JUMPDEST PUSH1 0x0 PUSH1 0x20 DUP3 ADD SWAP1 POP DUP2 DUP2 SUB PUSH1 0x0 DUP4 ADD MSTORE PUSH2 0x16C6 DUP2 PUSH2 0x141C JUMP JUMPDEST SWAP1 POP SWAP2 SWAP1 POP JUMP JUMPDEST PUSH1 0x0 PUSH1 0x20 DUP3 ADD SWAP1 POP DUP2 DUP2 SUB PUSH1 0x0 DUP4 ADD MSTORE PUSH2 0x16E6 DUP2 PUSH2 0x143F JUMP JUMPDEST SWAP1 POP SWAP2 SWAP1 POP JUMP JUMPDEST PUSH1 0x0 PUSH1 0x20 DUP3 ADD SWAP1 POP DUP2 DUP2 SUB PUSH1 0x0 DUP4 ADD MSTORE PUSH2 0x1706 DUP2 PUSH2 0x1462 JUMP JUMPDEST SWAP1 POP SWAP2 SWAP1 POP JUMP JUMPDEST PUSH1 0x0 PUSH1 0x20 DUP3 ADD SWAP1 POP DUP2 DUP2 SUB PUSH1 0x0 DUP4 ADD MSTORE PUSH2 0x1726 DUP2 PUSH2 0x1485 JUMP JUMPDEST SWAP1 POP SWAP2 SWAP1 POP JUMP JUMPDEST PUSH1 0x0 PUSH1 0x20 DUP3 ADD SWAP1 POP DUP2 DUP2 SUB PUSH1 0x0 DUP4 ADD MSTORE PUSH2 0x1746 DUP2 PUSH2 0x14A8 JUMP JUMPDEST SWAP1 POP SWAP2 SWAP1 POP JUMP JUMPDEST PUSH1 0x0 PUSH1 0x20 DUP3 ADD SWAP1 POP DUP2 DUP2 SUB PUSH1 0x0 DUP4 ADD MSTORE PUSH2 0x1766 DUP2 PUSH2 0x14CB JUMP JUMPDEST SWAP1 POP SWAP2 SWAP1 POP JUMP JUMPDEST PUSH1 0x0 PUSH1 0x20 DUP3 ADD SWAP1 POP DUP2 DUP2 SUB PUSH1 0x0 DUP4 ADD MSTORE PUSH2 0x1786 DUP2 PUSH2 0x1511 JUMP JUMPDEST SWAP1 POP SWAP2 SWAP1 POP JUMP JUMPDEST PUSH1 0x0 PUSH2 0x1797 PUSH2 0x17A8 JUMP JUMPDEST SWAP1 POP PUSH2 0x17A3 DUP3 DUP3 PUSH2 0x19C4 JUMP JUMPDEST SWAP2 SWAP1 POP JUMP JUMPDEST PUSH1 0x0 PUSH1 0x40 MLOAD SWAP1 POP SWAP1 JUMP JUMPDEST PUSH1 0x0 PUSH8 0xFFFFFFFFFFFFFFFF DUP3 GT ISZERO PUSH2 0x17CD JUMPI PUSH2 0x17CC PUSH2 0x1AEF JUMP JUMPDEST JUMPDEST PUSH2 0x17D6 DUP3 PUSH2 0x1B32 JUMP JUMPDEST SWAP1 POP PUSH1 0x20 DUP2 ADD SWAP1 POP SWAP2 SWAP1 POP JUMP JUMPDEST PUSH1 0x0 DUP2 SWAP1 POP PUSH1 0x20 DUP3 ADD SWAP1 POP SWAP2 SWAP1 POP JUMP JUMPDEST PUSH1 0x0 DUP2 SWAP1 POP PUSH1 0x20 DUP3 ADD SWAP1 POP SWAP2 SWAP1 POP JUMP JUMPDEST PUSH1 0x0 DUP2 MLOAD SWAP1 POP SWAP2 SWAP1 POP JUMP JUMPDEST PUSH1 0x0 DUP2 MLOAD SWAP1 POP SWAP2 SWAP1 POP JUMP JUMPDEST PUSH1 0x0 DUP2 MLOAD SWAP1 POP SWAP2 SWAP1 POP JUMP JUMPDEST PUSH1 0x0 PUSH1 0x20 DUP3 ADD SWAP1 POP SWAP2 SWAP1 POP JUMP JUMPDEST PUSH1 0x0 PUSH1 0x20 DUP3 ADD SWAP1 POP SWAP2 SWAP1 POP JUMP JUMPDEST PUSH1 0x0 DUP3 DUP3 MSTORE PUSH1 0x20 DUP3 ADD SWAP1 POP SWAP3 SWAP2 POP POP JUMP JUMPDEST PUSH1 0x0 DUP3 DUP3 MSTORE PUSH1 0x20 DUP3 ADD SWAP1 POP SWAP3 SWAP2 POP POP JUMP JUMPDEST PUSH1 0x0 DUP3 DUP3 MSTORE PUSH1 0x20 DUP3 ADD SWAP1 POP SWAP3 SWAP2 POP POP JUMP JUMPDEST PUSH1 0x0 DUP3 DUP3 MSTORE PUSH1 0x20 DUP3 ADD SWAP1 POP SWAP3 SWAP2 POP POP JUMP JUMPDEST PUSH1 0x0 DUP2 SWAP1 POP SWAP3 SWAP2 POP POP JUMP JUMPDEST PUSH1 0x0 PUSH2 0x1898 DUP3 PUSH2 0x1955 JUMP JUMPDEST SWAP2 POP PUSH2 0x18A3 DUP4 PUSH2 0x1955 JUMP JUMPDEST SWAP3 POP DUP3 PUSH32 0xFFFFFFFFFFFFFFFFFFFFFFFFFFFFFFFFFFFFFFFFFFFFFFFFFFFFFFFFFFFFFFFF SUB DUP3 GT ISZERO PUSH2 0x18D8 JUMPI PUSH2 0x18D7 PUSH2 0x1A62 JUMP JUMPDEST JUMPDEST DUP3 DUP3 ADD SWAP1 POP SWAP3 SWAP2 POP POP JUMP JUMPDEST PUSH1 0x0 PUSH2 0x18EE DUP3 PUSH2 0x1955 JUMP JUMPDEST SWAP2 POP PUSH2 0x18F9 DUP4 PUSH2 0x1955 JUMP JUMPDEST SWAP3 POP DUP3 DUP3 LT ISZERO PUSH2 0x190C JUMPI PUSH2 0x190B PUSH2 0x1A62 JUMP JUMPDEST JUMPDEST DUP3 DUP3 SUB SWAP1 POP SWAP3 SWAP2 POP POP JUMP JUMPDEST PUSH1 0x0 PUSH2 0x1922 DUP3 PUSH2 0x1935 JUMP JUMPDEST SWAP1 POP SWAP2 SWAP1 POP JUMP JUMPDEST PUSH1 0x0 DUP2 ISZERO ISZERO SWAP1 POP SWAP2 SWAP1 POP JUMP JUMPDEST PUSH1 0x0 PUSH20 0xFFFFFFFFFFFFFFFFFFFFFFFFFFFFFFFFFFFFFFFF DUP3 AND SWAP1 POP SWAP2 SWAP1 POP JUMP JUMPDEST PUSH1 0x0 DUP2 SWAP1 POP SWAP2 SWAP1 POP JUMP JUMPDEST PUSH1 0x0 JUMPDEST DUP4 DUP2 LT ISZERO PUSH2 0x197D JUMPI DUP1 DUP3 ADD MLOAD DUP2 DUP5 ADD MSTORE PUSH1 0x20 DUP2 ADD SWAP1 POP PUSH2 0x1962 JUMP JUMPDEST DUP4 DUP2 GT ISZERO PUSH2 0x198C JUMPI PUSH1 0x0 DUP5 DUP5 ADD MSTORE JUMPDEST POP POP POP POP JUMP JUMPDEST PUSH1 0x0 PUSH1 0x2 DUP3 DIV SWAP1 POP PUSH1 0x1 DUP3 AND DUP1 PUSH2 0x19AA JUMPI PUSH1 0x7F DUP3 AND SWAP2 POP JUMPDEST PUSH1 0x20 DUP3 LT DUP2 EQ ISZERO PUSH2 0x19BE JUMPI PUSH2 0x19BD PUSH2 0x1A91 JUMP JUMPDEST JUMPDEST POP SWAP2 SWAP1 POP JUMP JUMPDEST PUSH2 0x19CD DUP3 PUSH2 0x1B32 JUMP JUMPDEST DUP2 ADD DUP2 DUP2 LT PUSH8 0xFFFFFFFFFFFFFFFF DUP3 GT OR ISZERO PUSH2 0x19EC JUMPI PUSH2 0x19EB PUSH2 0x1AEF JUMP JUMPDEST JUMPDEST DUP1 PUSH1 0x40 MSTORE POP POP POP JUMP JUMPDEST PUSH1 0x0 PUSH2 0x1A00 DUP3 PUSH2 0x1955 JUMP JUMPDEST SWAP2 POP PUSH32 0xFFFFFFFFFFFFFFFFFFFFFFFFFFFFFFFFFFFFFFFFFFFFFFFFFFFFFFFFFFFFFFFF DUP3 EQ ISZERO PUSH2 0x1A33 JUMPI PUSH2 0x1A32 PUSH2 0x1A62 JUMP JUMPDEST JUMPDEST PUSH1 0x1 DUP3 ADD SWAP1 POP SWAP2 SWAP1 POP JUMP JUMPDEST PUSH1 0x0 PUSH2 0x1A49 DUP3 PUSH2 0x1A50 JUMP JUMPDEST SWAP1 POP SWAP2 SWAP1 POP JUMP JUMPDEST PUSH1 0x0 PUSH2 0x1A5B DUP3 PUSH2 0x1B43 JUMP JUMPDEST SWAP1 POP SWAP2 SWAP1 POP JUMP JUMPDEST PUSH32 0x4E487B7100000000000000000000000000000000000000000000000000000000 PUSH1 0x0 MSTORE PUSH1 0x11 PUSH1 0x4 MSTORE PUSH1 0x24 PUSH1 0x0 REVERT JUMPDEST PUSH32 0x4E487B7100000000000000000000000000000000000000000000000000000000 PUSH1 0x0 MSTORE PUSH1 0x22 PUSH1 0x4 MSTORE PUSH1 0x24 PUSH1 0x0 REVERT JUMPDEST PUSH32 0x4E487B7100000000000000000000000000000000000000000000000000000000 PUSH1 0x0 MSTORE PUSH1 0x32 PUSH1 0x4 MSTORE PUSH1 0x24 PUSH1 0x0 REVERT JUMPDEST PUSH32 0x4E487B7100000000000000000000000000000000000000000000000000000000 PUSH1 0x0 MSTORE PUSH1 0x41 PUSH1 0x4 MSTORE PUSH1 0x24 PUSH1 0x0 REVERT JUMPDEST PUSH1 0x0 DUP1 REVERT JUMPDEST PUSH1 0x0 DUP1 REVERT JUMPDEST PUSH1 0x0 DUP1 REVERT JUMPDEST PUSH1 0x0 DUP1 REVERT JUMPDEST PUSH1 0x0 PUSH1 0x1F NOT PUSH1 0x1F DUP4 ADD AND SWAP1 POP SWAP2 SWAP1 POP JUMP JUMPDEST PUSH1 0x0 DUP2 PUSH1 0x60 SHL SWAP1 POP SWAP2 SWAP1 POP JUMP JUMPDEST PUSH32 0x5769746864726177204661696C65642120506C65617365205472792041676169 PUSH1 0x0 DUP3 ADD MSTORE PUSH32 0x6E21000000000000000000000000000000000000000000000000000000000000 PUSH1 0x20 DUP3 ADD MSTORE POP JUMP JUMPDEST PUSH32 0x546F6B656E204E6F7420696E20506F7274666F6C696F21000000000000000000 PUSH1 0x0 DUP3 ADD MSTORE POP JUMP JUMPDEST PUSH32 0x4465706F736974204661696C65642120506C656173652054727920416761696E PUSH1 0x0 DUP3 ADD MSTORE PUSH32 0x2100000000000000000000000000000000000000000000000000000000000000 PUSH1 0x20 DUP3 ADD MSTORE POP JUMP JUMPDEST PUSH32 0x576974686472617720416D6F756E742043616E6E6F7420426520302100000000 PUSH1 0x0 DUP3 ADD MSTORE POP JUMP JUMPDEST PUSH32 0x596F752043616E6E6F7420576974686472617720416E6F74686572277320506F PUSH1 0x0 DUP3 ADD MSTORE PUSH32 0x7274666F6C696F00000000000000000000000000000000000000000000000000 PUSH1 0x20 DUP3 ADD MSTORE POP JUMP JUMPDEST PUSH32 0x4E6F20546F6B656E7320746F2057697468647261772100000000000000000000 PUSH1 0x0 DUP3 ADD MSTORE POP JUMP JUMPDEST PUSH32 0x596F752043616E6E6F74205669657720416E6F74686572277320506F7274666F PUSH1 0x0 DUP3 ADD MSTORE PUSH32 0x6C696F2042616C616E6365730000000000000000000000000000000000000000 PUSH1 0x20 DUP3 ADD MSTORE POP JUMP JUMPDEST PUSH32 0x546F6B656E204164647265737320526571756972656421000000000000000000 PUSH1 0x0 DUP3 ADD MSTORE POP JUMP JUMPDEST POP JUMP JUMPDEST PUSH32 0x4465706F73697420416D6F756E742043616E6E6F742042652030210000000000 PUSH1 0x0 DUP3 ADD MSTORE POP JUMP JUMPDEST PUSH2 0x1D65 DUP2 PUSH2 0x1917 JUMP JUMPDEST DUP2 EQ PUSH2 0x1D70 JUMPI PUSH1 0x0 DUP1 REVERT JUMPDEST POP JUMP JUMPDEST PUSH2 0x1D7C DUP2 PUSH2 0x1929 JUMP JUMPDEST DUP2 EQ PUSH2 0x1D87 JUMPI PUSH1 0x0 DUP1 REVERT JUMPDEST POP JUMP JUMPDEST PUSH2 0x1D93 DUP2 PUSH2 0x1955 JUMP JUMPDEST DUP2 EQ PUSH2 0x1D9E JUMPI PUSH1 0x0 DUP1 REVERT JUMPDEST POP JUMP INVALID LOG2 PUSH5 0x6970667358 0x22 SLT KECCAK256 SELFDESTRUCT DUP10 PUSH26 0x5EE023657EB88352AC4735197F7063DCD146FEC70FA27BDC1D39 0xCB ADDRESS DUP2 PUSH5 0x736F6C6343 STOP ADDMOD SMOD STOP CALLER "
		},
		"gasEstimates": {
			"creation": {
				"codeDepositCost": "1527800",
				"executionCost": "1596",
				"totalCost": "1529396"
			},
			"external": {
				"depositTokens(uint256,address)": "infinite",
				"getBalances(address)": "infinite",
				"withdrawAll(address)": "infinite",
				"withdrawTokens(uint256,address)": "infinite"
			},
			"internal": {
				"_addToken(address)": "infinite"
			}
		},
		"methodIdentifiers": {
			"depositTokens(uint256,address)": "4f6300a2",
			"getBalances(address)": "c84aae17",
			"withdrawAll(address)": "fa09e630",
			"withdrawTokens(uint256,address)": "398d92bb"
		}
	},
	"abi": [
		{
			"inputs": [
				{
					"internalType": "uint256",
					"name": "amount",
					"type": "uint256"
				},
				{
					"internalType": "address",
					"name": "tokenAddress",
					"type": "address"
				}
			],
			"name": "depositTokens",
			"outputs": [
				{
					"internalType": "bool",
					"name": "",
					"type": "bool"
				}
			],
			"stateMutability": "nonpayable",
			"type": "function"
		},
		{
			"inputs": [
				{
					"internalType": "address",
					"name": "investor",
					"type": "address"
				}
			],
			"name": "getBalances",
			"outputs": [
				{
					"components": [
						{
							"internalType": "address",
							"name": "tokenAddress",
							"type": "address"
						},
						{
							"internalType": "string",
							"name": "symbol",
							"type": "string"
						},
						{
							"internalType": "uint256",
							"name": "balance",
							"type": "uint256"
						},
						{
							"internalType": "bool",
							"name": "exists",
							"type": "bool"
						}
					],
					"internalType": "struct Portfolio.Token[]",
					"name": "",
					"type": "tuple[]"
				}
			],
			"stateMutability": "view",
			"type": "function"
		},
		{
			"inputs": [
				{
					"internalType": "address",
					"name": "investor",
					"type": "address"
				}
			],
			"name": "withdrawAll",
			"outputs": [
				{
					"internalType": "bool[]",
					"name": "",
					"type": "bool[]"
				}
			],
			"stateMutability": "nonpayable",
			"type": "function"
		},
		{
			"inputs": [
				{
					"internalType": "uint256",
					"name": "amount",
					"type": "uint256"
				},
				{
					"internalType": "address",
					"name": "tokenAddress",
					"type": "address"
				}
			],
			"name": "withdrawTokens",
			"outputs": [
				{
					"internalType": "bool",
					"name": "",
					"type": "bool"
				}
			],
			"stateMutability": "nonpayable",
			"type": "function"
		}
	]
}